:1000000000400120910100007F03000081030000F7
:100010008303000085030000870300000000000048
:100020000000000000000000000000008903000044
:100030008B030000000000008D0300008F03000010
:100040009103000093030000950300009703000054
:10005000990300009B0300009D0300009F03000024
:10006000A1030000A3030000A1080000C5080000D0
:10007000A9030000AB030000AD030000AF030000C4
:10008000B1030000B3030000B5030000F90E000047
:10009000B9030000BB030000BD030000BF03000064
:1000A000C1030000C3030000C5030000C703000034
:1000B000C9030000CB030000CD030000CF03000004
:1000C000D1030000D3030000D5030000D7030000D4
:1000D000D9030000DB030000DD030000DF030000A4
:1000E000E1030000E3030000E5030000E703000074
:1000F000E9030000EB030000ED030000EF03000044
:10010000F1030000F3030000F5030000F703000013
:10011000F9030000FB030000FD030000FF030000E3
:1001200001040000030400000504000007040000AF
:10013000090400000B0400000D0400000F0400007F
:10014000110400001304000015040000170400004F
:10015000190400001B0400001D0400001F0400001F
:1001600021040000230400002504000027040000EF
:10017000290400002B0400002D0400002F040000BF
:100180003104000033040000000000000000000003
:100190004FF0000BDFF8BE020068DFF8B612096806
:1001A00001F0030100F01C00142801D14BF0020BF8
:1001B000002901D04BF0010BBBF1000F05D0A7487F
:1001C000A749DFF8722200F09FF8A64880470BF09D
:1001D000020ABAF1000F0CD0DFF86E02DFF86E12DF
:1001E00002680B680FB44FF000024FF0FF0302608B
:1001F0000B609D4800220123022808D1DFF83E123F
:100200000A60DFF842120A60DFF836120B6001283C
:1002100008D1DFF82E120A60DFF82A120A60DFF830
:100220001E120B609148002809D191489149924AC9
:1002300000F032F891489249924A00F02DF8924825
:100240009249934A00F028F892489349DFF8E62152
:1002500000F05AF8BBF1000F12D090489049DFF837
:10026000DA2100F051F80BF0020ABAF1000F07D0C2
:100270000FBC02600B6000BFAFF30080AFF30080E3
:10028000DFF820020FF2030E00474FF000004FF09E
:100290000001DFF814F2FEE72DE9F841884225D08D
:1002A000B2EB010200D5FEE740EA010313F00303BD
:1002B00002D000F01DF819E04FF000039046121133
:1002C000F7D09A421CBFF0C8F0C103F10103F8D186
:1002D00008F00F08B8F1000F08D004780C7000F196
:1002E000010001F10101B8F10108F6D1BDE8F88182
:1002F00008B54FF0000303780B7000F1010001F125
:100300000101013AF7D108BD884237D000F0030659
:10031000002E14D04FF00405A5EB06044FF008079B
:1003200007FB06F8914669FA08F9002C07D080F817
:10033000009069FA07F900F10100013CF5E74FF080
:1003400000060F46091A88460911914614461546BB
:10035000B14206D018BFA0E8340206F10106B1424E
:10036000F8D108F00F08B8F1000F07D002704FEA7B
:10037000322200F10100B8F10108F4E77047FEE70E
:10038000FEE7FEE7FEE7FEE7FEE7FEE7FEE7FEE745
:10039000FEE7FEE7FEE7FEE7FEE7FEE7FEE7FEE735
:1003A000FEE7FEE7FEE7FEE7FEE7FEE7FEE7FEE725
:1003B000FEE7FEE7FEE7FEE7FEE7FEE7FEE7FEE715
:1003C000FEE7FEE7FEE7FEE7FEE7FEE7FEE7FEE705
:1003D000FEE7FEE7FEE7FEE7FEE7FEE7FEE7FEE7F5
:1003E000FEE7FEE7FEE7FEE7FEE7FEE7FEE7FEE7E5
:1003F000FEE7FEE7FEE7FEE7FEE7FEE7FEE7FEE7D5
:10040000FEE7FEE7FEE7FEE7FEE7FEE7FEE7FEE7C4
:10041000FEE7FEE7FEE7FEE7FEE7FEE7FEE7FEE7B4
:10042000FEE7FEE7FEE7FEE7FEE7FEE7FEE7FEE7A4
:10043000FEE7FEE7704700000000A2A2A2A2008033
:100440000340088003401080034030800340348024
:1004500003403880034018080240000000300120AB
:1004600000400120291500000000000000000000ED
:10047000000000000000000090010000B004000037
:10048000B0040000C0200000C020000000000120D7
:100490002000012020000120F0000120F0000120B8
:1004A00000300120151D000075180000000000003C
:1004B00010B5054C237833B9044B13B10448AFF39E
:1004C00000800123237010BD2000012000000000E7
:1004D0009C2000000C4B43B10C4810B50C49AFF305
:1004E00000800C48036823B910BD0A48036833B97B
:1004F0007047094B002BF7D0BDE810401847064B5A
:10050000002BF5D0184700BF000000009C20000021
:1005100024000120000001200000000080B483B00E
:1005200000AF0346FB71094997F907305B09FA7977
:1005300002F01F02012000FA02F2603341F823208A
:1005400000BF0C37BD4680BC704700BF00E100E033
:1005500080B483B000AF78600B46FB707B6803F01B
:1005600070427B685B0123F07E4323F01F0313433B
:10057000FA789200134403F100731A4601231360C2
:1005800000BF0C37BD4680BC704780B483B000AF5D
:1005900078600B46FB707B6803F070427B685B0100
:1005A00023F07E4323F01F031343FA789200134491
:1005B00003F100731A460023136000BF0C37BD46D9
:1005C00080BC704780B483B000AF78600B46FB708E
:1005D0007B6803F070427B685B0123F07E4323F06D
:1005E0001F031343FA789200134403F100731B684E
:1005F000DBB218460C37BD4680BC704780B584B06E
:1006000000AFF860B9601346FB71FB68144A93426F
:1006100004D0FB68134A934200D000BEFB791A460F
:10062000B968F86800F006FAFB681B6830330321EC
:100630001846FFF7AAFFFB681B68343302211846EF
:10064000FFF7A3FFFB681B68383300211846FFF74C
:100650009CFFFB68044A5A6200BF1037BD4680BD4C
:10066000A800012068000120110E000080B489B0AC
:1006700000AFF860B9607A600023FB61FB682A4A2A
:10068000934204D0FB68294A934200D000BEBB6865
:10069000002B00D100BE7B68002B00D100BEFB68A0
:1006A000214A934203D0FB68204A934237D1BB686A
:1006B000002B34D07B68002B31D0FB681B681B7D7E
:1006C000FB74FB685A7BFB7C1343DAB2FB685A73FA
:1006D000FB7C03F02003002B1ED010237B617B6882
:1006E0000F2B01D87B687B610023BB610CE0FB68AA
:1006F0001B68B968FA690A4412781A70FB690133F9
:10070000FB61BB690133BB61BA697B699A42EED375
:100710007A68BB69D31A7B607B68002BCDD100BFA0
:100720002437BD4680BC7047A80001206800012026
:1007300080B487B000AF7860396000237B617B684C
:10074000264A934204D07B68254A934200D000BEDB
:100750003B68002B00D100BE7B68204A934203D047
:100760007B681F4A934233D13B68002B30D03A68F4
:100770007B6913441B78FB7327E07B681B681B7D38
:10078000BB737B685A7BBB7B1343DAB27B685A73BB
:10079000BB7B03F02003002BEFD000233B610EE076
:1007A0007B681B68FA7B1A703B6901333B617B698C
:1007B00001337B613A687B6913441B78FB73FB7BD5
:1007C000002B02D03B690F2BEAD9FB7B002BD4D145
:1007D00000BF1C37BD4680BC704700BFA800012089
:1007E0006800012080B487B000AFF860B9607A601B
:1007F00000237B610023FB74FB68274A934204D0EB
:10080000FB68264A934200D000BEBB68002B00D193
:1008100000BE7B68002B00D100BEFB681E4A9342DD
:1008200003D0FB681D4A934230D1BB68002B2DD00A
:100830007B68002B2AD0FB681B681B7DFB74FB6860
:100840005A7BFB7C1343DAB2FB685A7315E0BA6833
:100850007B691344FA6812681278D2B21A707B6905
:1008600001337B61FB681B681B7DFB74FB685A7B53
:10087000FB7C1343DAB2FB685A73FB7C03F0010381
:10088000002B03D07A697B689A42E0D37B691846D3
:100890001C37BD4680BC7047A800012068000120BD
:1008A000684620F007018D4689B500AF044800F086
:1008B000ADF900BFBD46BDE889408546704700BF21
:1008C000A8000120684620F007018D4689B500AFD9
:1008D000044800F09BF900BFBD46BDE8894085464D
:1008E000704700BF6800012080B588B000AF786015
:1008F00039607B684B4A934204D07B684A4A9342F2
:1009000000D000BE7B68474A934204D07B68464AC9
:10091000934240F082807B683A689A6000F014FE4F
:100920007B68404A934203D1404B1B68FB6102E065
:100930003F4B1B68FB61FB69DA003B68B2FBF3F3DA
:10094000BB61BB695B087B617B699B093B613B6960
:100950009B017A69D31AFB603B69DB01BA69D21A41
:10096000FB685B00D31AFA681344FB603B69B3F57C
:10097000803F00D300BE3B69B3F5803F4DD23B6959
:10098000012B2AD97B681B680C3307211846FFF717
:10099000DFFD7B681B683A69120AD2B21A717B6864
:1009A0001B683A69D2B21A707B681B680C33072146
:1009B0001846FFF7EAFD7B681B68303307211846AD
:1009C000FFF7C6FDFB68FF2B00D900BE7B681B68E4
:1009D000FA68D2B283F83C201FE07B681B680C33B6
:1009E00007211846FFF7B4FD7B681B683A69120AB5
:1009F000D2B21A717B681B683A69D2B21A707B68EE
:100A00001B680C3307211846FFF7BFFD7B681B6886
:100A1000303307211846FFF7B8FD00BF2037BD4629
:100A200080BD00BFA800012068000120080001204F
:100A30000C00012080B584B000AFF860B9601346A7
:100A4000FB71FB686D4A934204D0FB686C4A934289
:100A500000D000BEFB68694A934216D1FB684FF094
:100A600080421A60FB680A221A71664A654B9B6CC9
:100A700043F0800393640A20FFF750FD614A614B05
:100A80009B6C23F08003936414E0FB685E4A1A6059
:100A9000FB680B221A715B4A5A4B9B6C43F48073C0
:100AA00093640B20FFF73AFD564A564B9B6C23F498
:100AB00080739364FB681B6800221A71FB681B68D3
:100AC00000221A72FB681B68083301211846FFF7E1
:100AD0003FFDFB681B68083302211846FFF738FD0D
:100AE000FB681B68083300211846FFF731FDFB68DF
:100AF0001B68103304211846FFF747FDFB681B688D
:100B0000103305211846FFF740FDFB681B6834339E
:100B100001211846FFF739FDFB681B6834330021BB
:100B20001846FFF732FDFB681B6838330121184671
:100B3000FFF72BFDFB681B68303305211846FFF7D4
:100B400024FDFB681B68303306211846FFF71DFDA6
:100B5000FB681B68303307211846FFF716FDFB685A
:100B60001B68383303211846FFF70FFDFB681B682D
:100B7000002283F84420FB681B68002283F8482089
:100B8000FB681B68002283F84C20B968F868FFF7FF
:100B9000ABFEFB681B68FA791A73FB68BA689A6047
:100BA000FB68FA791A73FB6800225A61FB6800221D
:100BB0001A61FB6800229A61FB6800221A62FB68D6
:100BC00000225A62FB680022DA61FB6800229A6206
:100BD000FB680022DA62FB6800221A63FB680022CD
:100BE0005A63FB6800229A63FB680022DA63FB68A1
:100BF00000225A7300BF1037BD4680BDA8000120F7
:100C000068000120008003400000014080B584B0EE
:100C100000AF78607B687C4A934204D07B687B4A53
:100C2000934200D000BE7B68774A934204D07B6831
:100C3000764A934240F0E3807B681B681B7ADBB204
:100C400003F00F03FB73FB7B0C2B00F2CD8001A2A2
:100C500052F823F0890C0000E90D0000A70C0000F9
:100C6000010D0000C50C0000E90D0000E30C0000C0
:100C7000E90D0000E90D0000E90D0000E90D00009C
:100C8000E90D0000C50C00007B689B6A002B00D1B9
:100C900000BE7B689B6A002B00F0A8807B689B6A83
:100CA00078689847A2E07B685B6A002B00D100BEA1
:100CB0007B685B6A002B00F09B807B685B6A7868CE
:100CC000984795E07B681B6A002B00D100BE7B68CB
:100CD0001B6A002B00F08E807B681B6A786898473F
:100CE00088E07B68DB69002B00D100BE7B68DB6994
:100CF000002B00F081807B68DB69786898477BE097
:100D00007B681B68283300211846FFF75BFC03460D
:100D1000002B0CD07B68DB6A002B00D100BE7B6807
:100D2000DB6A002B03D07B68DB6A786898477B68B6
:100D30001B68283301211846FFF744FC0346002BAB
:100D40000CD07B681B6B002B00D100BE7B681B6B3B
:100D5000002B03D07B681B6B786898477B681B6807
:100D6000283302211846FFF72DFC0346002B0CD038
:100D70007B685B6B002B00D100BE7B685B6B002B3C
:100D800003D07B685B6B786898477B681B68283367
:100D900003211846FFF716FC0346002B0CD07B6896
:100DA0009B6B002B00D100BE7B689B6B002B03D09C
:100DB0007B689B6B786898477B681B6828330421A5
:100DC0001846FFF7FFFB0346002B17D07B68DB6B51
:100DD000002B00D100BE7B68DB6B002B0ED07B6844
:100DE000DB6B7868984709E000BE08E000BF06E0CA
:100DF00000BF04E000BF02E000BF00E000BF00BF92
:100E00001037BD4680BD00BFA8000120680001204A
:100E100080B586B000AF78607B68354A934204D0D5
:100E20007B68344A934200D000BE7B681B69002B6C
:100E300000D100BE7B685B69002B00D100BE7B68DF
:100E40002B4A934203D07B682A4A93424CD17B6859
:100E50001B69002B48D07B685B69002B44D07B6802
:100E60001B681B7DFB737B685A7BFB7B1343DAB2E9
:100E70007B685A73FB7B03F02003002B24D01023E4
:100E80003B617B685A697B689B69D31ABB60BB680E
:100E90000F2B01D8BB683B6100237B6110E07B68AE
:100EA0001B687A6811697A6892690A4412781A7024
:100EB0007B689B695A1C7B689A617B6901337B6103
:100EC0007A693B699A42EAD37B689A697B685B6975
:100ED0009A4209D17B6800225A617B681B680433FF
:100EE00001211846FFF751FB00BF1837BD4680BDF2
:100EF000A80001206800012080B582B000AF0F4B30
:100F00005B68FB710D4B9B68DAB2FB791340FB7198
:100F1000FB7903F00203BB71BB79002B01D000F019
:100F2000E5F8FB7903F001037B717B79002B01D09D
:100F300000F006F800BF0837BD4680BD00600140E4
:100F400080B584B000AF624B1B78022B3DD0052BDF
:100F500068D0012B40F0AA805E4B1B889BB2002B0F
:100F60002FD05D4B1A685B4B1B889BB2194610460D
:100F700000F00AFAF860574B1B889BB21A46FB68D0
:100F80009A420FD9534B1B889AB2FB689BB2D31A73
:100F90009AB2504B1A80504B1A68FB6813444E4A61
:100FA000136090E04B4B00221A804C4B1B68002BC7
:100FB00003D0474B02221A7085E0454B03221A707A
:100FC00081E000BE00F0BAF97DE0444B1B68002BC5
:100FD00024D0434B1A68414B1B681946104600F059
:100FE000D3F9B8603D4B1B68BA689A420CD23B4BB0
:100FF0001A68BB68D31A394A1360394B1A68BB6840
:101000001344374A13605EE0364A364B9B6823F040
:10101000010393602E4B03221A7054E000BE00F0CF
:101020008DF950E02D4B1B68002B1BD12E4B1B68FC
:10103000002B14D02C4B1B68294898470246274B9D
:101040001A60264B1B68002B0CD1264A254B9B6847
:1010500023F0010393601E4B03221A7002E000BECE
:1010600000F06CF91D4B1B68002B09D11D4A1D4B6C
:101070009B6823F001039360154B03221A7022E052
:10108000174B1A68154B1B681946104600F07CF97F
:101090007860124B1A687B68D31A104A1360104BA1
:1010A0001A687B6813440E4A13600CE00D4A0D4B1E
:1010B0009B6823F001039360002000F01FF9044BAC
:1010C00000221A7000BF00BF1037BD4680BD00BFB0
:1010D0006100012044000120400001204C0001205B
:1010E00048000120006001405C00012080B584B010
:1010F00000AF7C4B1B69FB81FB8923F4FF4323F08A
:101100007F03BB81FB89FB72774B1B78052B00F2B9
:10111000D68001A252F823F031110000AB1200007A
:10112000AB12000089110000D71100007F120000EF
:10113000BB89002B00F0CA80FB7AF12B06D0FB7A2A
:10114000BB72BB7A184600F04FF9BFE0674B002234
:101150001A80674B1B68654A128892B21344FA7A68
:101160001A70624B1B889BB201339AB25F4B1A8094
:101170005F4B1B685D4A128892B2134400221A70BA
:10118000594B04221A70A1E0BB89002B00F0A0800B
:10119000FB7A7B72574B1B78DBB27A7A9A4215D175
:1011A000524B00221A80524B1B68504A128892B24E
:1011B00013447A7A1A704D4B1B889BB201339AB252
:1011C0004A4B1A80484B04221A7081E07B7A1846F9
:1011D00000F00AF97CE0BB89002B06D0FB7A3B7259
:1011E0003B7A184600F000F974E0414B1A683F4B17
:1011F0001B889BB2013B13441B78F12B16D13C4B4F
:101200001B683A4A128892B21344FA7A1A70384B21
:101210001A68364B1B889BB2013B13441B78184657
:1012200000F0E2F8304B00221A7053E02F4B1B887D
:101230009AB2314B1B889A4210D2FB7AFB712C4B2D
:101240001B682A4A128892B21344FA791A70274B03
:101250001B889BB201339AB2244B1A80234B1B8804
:101260009AB2254B1B889A4234D1204B1B889BB2E3
:10127000184600F043F81C4B00221A702AE0BB8984
:10128000002B0BD11A4B1B680133FA7A1A7002201B
:1012900000F034F8144B00221A701EE0FB7ABB7188
:1012A000BB79184600F0A0F817E0BB89002B13D0DB
:1012B000FB7A7B717B79184600F096F80CE00020F1
:1012C00000F01CF8084B00221A7006E000BF04E092
:1012D00000BF02E000BF00E000BF00BF1037BD4606
:1012E00080BD00BF00600140610001205600012068
:1012F000500001203C0001205400012080B582B044
:1013000000AF0346FB800A4B1B68002B0CD0084B38
:101310001B68084A1268F98810469847044B002257
:101320001A60054B00221A7000BF0837BD4680BD09
:1013300058000120500001206000012080B582B0DB
:1013400000AF0E4B1B78DBB2002B13D00C4B1B886D
:101350009BB21846FFF7D2FF0A4A0A4B1B6843F0BC
:1013600001031360074B1B6803F001037B607B687C
:10137000002BF7D100BF0837BD4680BD60000120BB
:10138000560001200060014080B485B000AF786055
:101390003960144A134B1B6823F0040313600023C5
:1013A000FB60104B5B6803F00103BB600DE00D496F
:1013B0007A68FB6813441B780B61FB680133FB60A0
:1013C000084B5B6803F00103BB60BB68002B03D0D4
:1013D000FA683B689A42EAD3FB6818461437BD4660
:1013E00080BC70470060014080B582B000AF03460A
:1013F000FB71064B1B68002B04D0044B1B68FA7969
:101400001046984700BF0837BD4680BD64000120E4
:1014100080B483B000AF0346FB71094997F90730E8
:101420005B09FA7902F01F02012000FA02F2203370
:1014300041F8232000BF0C37BD4680BC704700BF79
:1014400000E100E080B483B000AF0346FB710949BE
:1014500097F907305B09FA7902F01F02012000FAC0
:1014600002F2603341F8232000BF0C37BD4680BC38
:10147000704700BF00E100E080B582B000AF1A4ABB
:10148000194B9B6C43F480139364174A164B9B6C67
:1014900043F0F073936400237B6012E0134A7B688F
:1014A000134493F900301846FFF7B2FF0F4A7B68E8
:1014B000134493F900301846FFF7C4FF7B680133EB
:1014C0007B607B681F2BE9D9074A074B9B6C23F095
:1014D000F0739364044A044B9B6C23F4801393646D
:1014E00000BF0837BD4680BD00800340F41D0000EA
:1014F00080B485B000AF03463960FB71FB79FB60B7
:10150000FB681F2B00D900BEFB681F2B05D8054ABE
:10151000FB6852F823303A681A6000BF1437BD46A2
:1015200080BC7047741D000080B500AF00F0F8F873
:10153000044A044B5B6943F400735361FEF77AFF7E
:1015400000BF80BD00ED00E080B588B000AF304B3B
:10155000D3F8983003F08063FB61FB69002B4CD11A
:101560002B4BD3F8983003F48053BB61BB69002B3D
:1015700015D1284B284A1A60284B274A1A60284B55
:10158000254A1A60274B284A1A60284B224A1A60BB
:10159000274B214A1A60274B1F4A1A6034E0264A1B
:1015A0003B1D92E8030083E80300194BD3F89C30FD
:1015B0009B0903F007037B613A1D7B6913441B7889
:1015C000FB74FB7C012B0AD0022B0DD0002B0FD11A
:1015D00000F036F8F860F86800F050F814E04FF4C6
:1015E000004000F04BF80FE0144800F047F80BE023
:1015F000124800F043F800BF06E000F021F8F86060
:10160000F86800F03BF8FFE700BF2037BD4680BD1B
:10161000008003400400012000E1F50508000120DE
:101620000C0001201000012040787D0114000120F1
:10163000180001201C000120141E000040420F0071
:1016400080B483B000AF0A4BD3F8503103F00403E9
:101650003B603B68002B02D1064B7B6001E0064BF0
:101660007B607B6818460C37BD4680BC704700BF66
:101670000080034040787D0180F0FA0280B483B09E
:1016800000AF78600C4A7B6813600C4A7B6813607B
:101690000B4A7B6813600B4B0B4A1A600B4A7B6842
:1016A00013600B4A7B6813600A4A7B68136000BFB3
:1016B0000C37BD4680BC70470400012008000120A3
:1016C0000C0001201000012040787D011400012051
:1016D000180001201C00012080B483B000AF0E4B25
:1016E000D3F84C313B603B684FF60202934203D083
:1016F0000A4A934203D005E001237B6005E0022300
:101700007B6002E000237B6000BF7B6818460C37DB
:10171000BD4680BC704700BF0080034002F8010056
:1017200080B582B000AFFFF7D7FF78607B68012BF0
:1017300000D002E000F006F800BF00BF0837BD4649
:1017400080BD000080B400AF094A094BD3F898303F
:1017500043F48073C2F89830054A054BD3F89830AB
:1017600023F08063C2F8983000BFBD4680BC70474C
:101770000080034080B483B000AF7860044A7B6887
:10178000C2F8883000BF0C37BD4680BC704700BF30
:101790000030014080B485B000AF78607B680E4AAD
:1017A000934203D07B680D4A93420ED17B681B683D
:1017B0001B7DFB737B685A7BFB7B1343DAB27B6830
:1017C0005A73FB7B03F0010300E000231846143733
:1017D000BD4680BC704700BFA80001206800012002
:1017E00080B584B000AF0346FB71FB793B730023E7
:1017F0007B7307F10C0319460348FEF799FF00BFFE
:101800001037BD4680BD00BFA800012080B582B062
:1018100000AF00233B7100237B713B1D0122194661
:101820000448FEF7DFFF97F9043018460837BD4635
:1018300080BD00BFA800012080B584B000AF7860F3
:101840007B68DBB203F00F03DBB23033DBB2FB7338
:1018500097F90F30392B03DDFB7B2733DBB2FB73AA
:1018600097F90F301846FFF7BBFF00BF1037BD4692
:1018700080BD000080B5AAB000AFD44A3B1D114620
:101880006822184600F06AFA4FF0A043C7F880308B
:10189000D7F88030C7F8A430CD4BFB67FB6FC7F893
:1018A000A030CC4BBB67BB6FC7F89C304FF00053E8
:1018B0007B677B6FC7F89830002387F89730002349
:1018C00087F88F30002387F88E30002387F88D301B
:1018D0000023C7F88830FFF7CFFD05210020FFF770
:1018E00007FE0020FFF746FF03224FF4E131BA481C
:1018F000FEF784FEB949B848FEF71AFF3B1D68227F
:101900001946B548FEF7B2FED7F88030C7F8A430C4
:10191000FB6FC7F8A0307B6FC7F898300023C7F87B
:10192000843022E0D7F8A0301B683B67D7F8A0309E
:101930000433C7F8A0303B6F9AB2D7F8A4301A60CE
:10194000D7F8A4300433C7F8A4303B6F1B0C1A46F9
:10195000D7F8A4301A60D7F8A4300433C7F8A430FD
:10196000D7F884300133C7F88430D7F88430B3F522
:10197000007FD7DB9A499848FEF7DAFE0023C7F8C4
:10198000843022E0D7F89C301B683B67D7F89C3046
:101990000433C7F89C303B6F9AB2D7F898301A607E
:1019A000D7F898300433C7F898303B6F1B0C1A46B1
:1019B000D7F898301A60D7F898300433C7F89830C1
:1019C000D7F884300133C7F88430D7F88430B3F5C2
:1019D000005FD7DB83498048FEF7AAFE0023C7F8E3
:1019E000843009E000F080F92E20FFF7F9FED7F8E7
:1019F00084300133C7F88430D7F88430072BF1DD09
:101A000079497548FEF794FE0120FFF7B3FE00BF49
:101A10007148FFF7BFFE0346002BF9D00020FFF707
:101A2000A9FE00F061F971496B48FEF781FE97F954
:101A30008D30002B06D0002387F89630002387F8DE
:101A40008D3003E097F8973087F89630FFF7DEFE89
:101A5000034687F89730012387F88E3097F997303F
:101A6000303B362B00F2C48001A252F823F000BFB5
:101A70004D1B0000551B00005D1B0000651B000096
:101A80006D1B0000751B00007D1B0000851B000006
:101A90008D1B0000951B0000F11B0000F11B0000D6
:101AA000F11B0000F11B0000F11B0000F11B000006
:101AB000F11B0000F11B0000F11B0000F11B0000F6
:101AC000F11B0000F11B0000F11B0000F11B0000E6
:101AD000F11B0000F11B0000F11B0000F11B0000D6
:101AE000F11B0000F11B0000F11B0000F11B0000C6
:101AF000F11B0000F11B0000F11B0000F11B0000B6
:101B0000F11B0000F11B0000F11B0000F11B0000A5
:101B1000F11B0000F11B0000F11B0000F11B000095
:101B2000F11B0000F11B0000F11B0000F11B000085
:101B3000F11B00009D1B0000A51B0000AD1B000059
:101B4000B51B0000BD1B0000C51B00000023C7F82B
:101B5000903053E00123C7F890304FE00223C7F8DC
:101B600090304BE00323C7F8903047E00423C7F8D8
:101B7000903043E00523C7F890303FE00623C7F8D4
:101B800090303BE00723C7F8903037E00823C7F8D0
:101B9000903033E00923C7F890302FE00A23C7F8CC
:101BA00090302BE00B23C7F8903027E00C23C7F8C8
:101BB000903023E00D23C7F890301FE00E23C7F8C4
:101BC00090301BE00F23C7F8903017E0342000005E
:101BD0000080016000000160A80001201C1E0000C0
:101BE000A01F0000B81F0000D41F00001820000034
:101BF0000023C7F89030002387F88E3097F98F3094
:101C0000002B1ED097F997305D2B06D1002387F863
:101C10008F30012387F88D3013E097F997305B2BD5
:101C200003D1002387F88F300BE097F98E30002B1B
:101C300007D097F996305B2B03D1D7F89030C7F8CF
:101C4000883097F98F30002B47D197F997305B2B6D
:101C500007D197F996305B2B03D0012387F88F309B
:101C60003BE097F98D30002B37D1D7F88830002B27
:101C700022D197F98E30002B27D197F997303E2B40
:101C800018D03E2B03DC2E2B06D03C2B13E0522B1E
:101C90000CD0722B06D018E097F86F301846FFF77B
:101CA000CBFD08E00020FFF765FD04E00120FFF711
:101CB00061FD00E000BF08E03F20FFF791FD97F9CC
:101CC00097301846FFF78CFD00E000BF97F997307A
:101CD0005B2B02D1012387F88D3097F99730184696
:101CE000FFF77EFDA3E600BF80B483B000AF084BD2
:101CF0001B68DB097B6002E07B68013B7B607B68E3
:101D0000002BF9D100BF0C37BD4680BC704700BF27
:101D10000400012070B500250C4E0D4CA41BA4102E
:101D2000A54209D100F0BAF900250A4E0A4CA41BBD
:101D3000A410A54205D170BD56F82530984701354D
:101D4000EEE756F8253098470135F2E7B420000059
:101D5000B4200000B4200000B820000010B5431EDD
:101D60000A44914200D110BD11F8014B03F8014F14
:101D7000F7E7000000300140043001400830014026
:101D80000C30014010300140143001401830014047
:101D90001C300140203001402430014028300140F7
:101DA0002C300140303001403430014038300140A7
:101DB0003C30014040300140443001404830014057
:101DC0004C30014050300140543001405830014007
:101DD0005C300140603001406430014068300140B7
:101DE0006C30014070300140743001407830014067
:101DF0007C30014032333435363738393A3B3C3D5C
:101E00003E3F404142434445464748494A4B4C4D7A
:101E10004E4F505100010001020203030A0D0A0D4A
:101E2000202A2A20202020202A2A202A2A2A2A2A58
:101E30002A2A20202A2A2A2A2A2A202A2A2A2A2A20
:101E4000202020202A2A2A2A202020202A2A2A2A42
:101E50002A202A2A2A2A2A2A202A2A202020202028
:101E60002A2A202A2A2A2A2A2A2A0A0D202A202A2D
:101E70002020202A202A202020202A202020202A3A
:101E8000202020202020202A202020202A20202A34
:101E9000202020202A20202A2020202020202A2024
:101EA00020202020202A202A2020202A202A20200A
:101EB00020202A2020200A0D202A20202A202A2023
:101EC000202A202020202A202020202A20202020F4
:101ED0002020202A2A2A2A2A2020202A20202020C6
:101EE0002A2020202A2A2A2A20202A2A2A2A2A2A84
:101EF000202A20202A202A20202A202020202A20B0
:101F000020200A0D202A2020202A2020202A2020DC
:101F100020202A202020202A202020202020202AA3
:101F2000202020202A20202A202020202A20202093
:101F3000202020202A202A2020202020202A202083
:101F4000202A2020202A202020202A2020200A0D9C
:101F5000202A202020202020202A202A2A2A2A2A3B
:101F60002A2A20202A2A2A2A2A2A202A2020202017
:101F70002A2020202A2A2A2A2020202A2A2A2A2AFD
:101F800020202A2A2A2A2A2A202A2020202020200B
:101F9000202A202A2A2A2A2A2A2A0A0D000000009A
:101FA000466162726963204C5352414D206C6F61EF
:101FB0006465640A0D000000654E564D20636F7025
:101FC0007920746F20655352414D20646F6E650A0D
:101FD0000D000000202D3E20524953432D56205322
:101FE0006F66744350552069732072756E6E696E0A
:101FF000672C20707265737320616E79204B455990
:1020000020746F2072657475726E20746F2055484D
:1020100053410A0D00000000456E746572696E67D9
:102020002055485341206D6F6465203A290A0D0000
:10203000000000000A0D524953432D5620536F668D
:102040007443505520436F6E746573742032303181
:102050003820626F6F746C6F6164657220666F7296
:1020600020656E67696E652D560A0D5573696E673A
:1020700020436F727465782D4D33206173736973DB
:1020800074656420626F6F7420636F6E6365707433
:1020900020616E6420554853410A0D00F8B500BF19
:1020A000F8BC08BC9E467047F8B500BFF8BC08BC39
:1020B0009E467047D5040000B104000000000000F7
:1020C0000000000000E1F50500E1F50500E1F5057F
:1020D00040787D0100E1F50500E1F50500E1F50539
:040000030000019167
:00000001FF
