:100000009702000093820201739052306F00D02358
:10001000130101FB2320110023223100232441007E
:100020002326510023286100232A7100232CC101BB
:10003000232ED1012320E1032322F1032324A10253
:100040002326B1022328C102232AD102232CE10254
:10005000232EF1022320010523221105F32210345F
:1000600023245104F322003023265104EF00C01C46
:1000700013030000631E0502F3222034B70300803F
:100080009383F3FFB3F272001303B000638A62003C
:100090001305010097000000938040136F00100EBD
:1000A0008322810493824200232451046F00C008FC
:1000B00093020100975300009383033903A1430087
:1000C000130101FF2320510003AE0300130E1E0095
:1000D00023A0C301630803009700000093808003FE
:1000E0006F00101373252034B70200809382F2FF53
:1000F00033755500EF004013930280271315350028
:10010000B382A20003A5020003A34200E70003009C
:100110001753000013034333832303009383F3FF38
:1001200023207300832201001381020083238300B4
:10013000032EC301630A7E08EF20906C97520000E3
:100140009382823003A3820023288302232A93020E
:10015000232C2303232E330323204305232253057B
:10016000232463052326730523288305232A930567
:10017000232CA305232EB305232623029753000027
:10018000938303E903AE03002326C30703A3C2013D
:1001900023A462000321C302032403038324430333
:1001A000032983038329C303032A0304832A430403
:1001B000032B8304832BC304032C0305832C4305E7
:1001C000032D8305832DC30583228104739012348C
:1001D0008322C104739002308320010083214100F7
:1001E000032281008322C1000323010183234101F3
:1001F000032E8101832EC101032F0102832F4102AF
:10020000032581028325C1020326010383264103BE
:10021000032781038327C1030328010483284104A2
:10022000130101057300203013031000B312A30063
:1002300073B3423467800000F32220343703008018
:10024000B3F2620013050000638402001305150079
:100250006780000073000000975200009382C21E66
:1002600003A382008323C30613758500F3220530A0
:08027000138503006780000004
:1002780000000000DC09000000000000DC090000AC
:1002880000000000DC09000000000000DC0900009C
:1002980000000000DC09000000000000DC0900008C
:1002A80000000000DC09000000000000201C000025
:1002B800130605001305000093F615006384060075
:1002C8003305C50093D5150013161600E39605FEF1
:1002D8006780000093820000130F05001385050056
:1002E800938F060093050F0013070600930700007D
:1002F80093030000930E00003388B300137E1700A9
:100308009398170013A3050013571700B387FE002F
:1003180063080E00333E780093030800B30EFE0016
:1003280093951500B3671301E31807FC63080500EC
:1003380093050600EFF0DFF7B38EAE00638A0F0077
:1003480093850F0013050F00EFF09FF6B38EAE00F4
:100358001385030093850E0067800200634005063D
:1003680063C6050613860500930505001305F0FF0F
:10037800630C060293061000637AB6006358C00047
:100388001316160093961600E36AB6FE13050000CE
:1003980063E6C500B385C5403365D50093D616001E
:1003A80013561600E39606FE67800000938200004D
:1003B800EFF05FFB13850500678002003305A0405E
:1003C80063D80500B305B0406FF0DFF9B305B0405E
:1003D80093820000EFF01FF93305A0406780020008
:1003E8009382000063CA0500634C0500EFF09FF795
:1003F8001385050067800200B305B040E35805FE89
:100408003305A040EFF01FF63305B04067800200C7
:10041800130101FE232E1100232C8100232A9100B1
:1004280013040600938405002328210113090500FD
:10043800EF20D05EEF20D03F2326A10037450000F3
:100448001306100093051900130505C6EF10C06EBA
:100458000327C1006342070637460000B74600007D
:100468001306C6C5938646C837450000930509009C
:100478001305C5C6EF10406C630004069307703E71
:1004880063D68704B74500009385C5CD13060400DD
:1004980013850400EF10406A032481018320C10101
:1004A800832441010329010137450000130545D084
:1004B800130101026F10406837460000B74600007C
:1004C800130686C59386C6CD6FF01FFAB7450000A0
:1004D800938545C86FF09FFBB74500009385C5CD50
:1004E80013850400EF1040656FF01FFB130101FD39
:1004F80023248102232E3101232611022322910273
:1005080023202103232C4101232A5101232861019F
:10051800232671012324810123229101930750008E
:100528001304050093091500630AF510B747000086
:10053800938707A7131725003387E700832407004D
:1005480013972900B387E70003A90700B74C0000F9
:10055800374C0000B74B0000374B0000B74A00008B
:100568001306000093850CBE13050400EFF05FEA44
:100578009305F0FF13850400EF10904F1306000059
:1005880093058CBF13050400EFF09FE89305F0FF77
:1005980013050900EF10D04DEF20104993054006D0
:1005A800EFF05FDC93850900EFF09FD01375F5013C
:1005B8009305900113051500EFF09FCF1306050072
:1005C80093850BC1130A050013050400EFF05FE4DF
:1005D80013050A00EF20103513050900EF10D05C51
:1005E8001306000093058BC213050400EFF05FE2C9
:1005F80013850400EF10505BEF201043930540066D
:10060800EFF05FD693850900EFF09FCA1375F501E7
:100618009305900113051500EFF09FC9130A050013
:100628001306050093850AC413050400EFF05FDE86
:1006380013050A00EF20102F6FF09FF237590000C2
:10064800B75400001309C9429384843C6FF01FF02B
:1006580037460000B745000037450000130101FB8D
:10066800130686A8938505A9130585A923261104D1
:10067800232481042322910423202105232C4103D0
:10068800232A51032328610323267103232481038A
:10069800232E3103EF10404A371500009305000060
:1006A80013058538EF20807D375500001305853CFC
:1006B800EF10D03A375500001305C53DEF10103A3A
:1006C800375500001305053FEF1050393755000026
:1006D80013054540EF109038375500001305854144
:1006E800EF10D037375500001305C54237590000C1
:1006F800B7540000EF109036130400001309890462
:10070800130C300093840449930BF0FF130B400043
:10071800B70A0000130A60009305000713050400D8
:10072800EFF01FB9B3088C40B309A9009305003056
:1007380013050400232E1101EFF09FB78328C10190
:1007480013070400B385A40023227101232061014B
:10075800130800009307000093864A4F13060030E1
:1007680013850900EF20507913041400138509003C
:10077800EF20506FE31244FB8320C104032481045B
:1007880083244104032901048329C103032A810323
:10079800832A4103032B0103832BC102032C81020B
:1007A800130101056780000093078000F3A7073055
:1007B8007300501067800000930710003395A7005E
:1007C8007325453067800000930710003395A70014
:1007D800733545306780000093078000F3B7073012
:1007E800735040307350403467800000130101FF9C
:1007F8002326110023248100930760006304F50277
:10080800EF20106463040502EF209063631605046B
:10081800B7450000938505E637450000130545E711
:10082800EF108031EFF05FF86FF0DFFFEF205062DC
:10083800E31C05FC3754000013044444832584005A
:1008480037450000130545E9EF10002F0325840004
:10085800EF30C0136FF01FFDB74500009385C5E565
:100868006FF09FFB130101FB2324810423229104D1
:1008780023261104930760009304050013840500E0
:1008880063E0A70E3747000093172500130787C8B2
:10089800B387E70083A70700678007003745000094
:1008A800130505CEEF104029EF2050178327440485
:1008B80093050500374500002328F1028327040427
:1008C800130545D62326F1028327C4032324F10206
:1008D800832784032322F102832744032320F10280
:1008E80083270403232EF1008327C402232CF1005D
:1008F80083278402232AF100832744022328F10056
:10090800832704022326F1008327C4012324F1004E
:10091800832784012322F100832744012320F10047
:10092800832804010328C400832784000327440084
:100938008326040003268404EF1000209305040096
:1009480013850400EFF09FEA37450000130585D0B2
:100958006FF05FF537450000130545D26FF09FF43F
:100968003745000093850400130505D4EF10C01C1B
:100978006FF09FF3130101FF232481002326110048
:100988001304050073262034B707008093C7F7FFC8
:100998003376F6009307500063E8C7023747000034
:1009A80093172600130747CAB307F70083A5070064
:1009B80037450000130545CCEF10001893050400D7
:1009C80013050000EFF01FEAB74500009385C5CB7B
:1009D8006FF01FFE130101FF23261100F3252034B9
:1009E800B707008093C7F7FF37450000B3F5F50058
:1009F800130545F9EF104014B74500009385C5EB82
:100A080013054000EFF01FE6B757000003A707449F
:100A1800630C070003A3074423A00744B75700004B
:100A280003A507046700030067800000130101FFA6
:100A380023261100EF10C05BEF10805DEF104064BB
:100A48001761000013018104930200403301510033
:100A5800EFF0DFFD6F008011130101FD23248102F7
:100A68002322910223202103232E31012326110260
:100A780093890600930680029304050013840500F9
:100A880013090600639CD808B72600009386C6FDA4
:100A9800639CD90883260103938508001385040005
:100AA80013064000232601012324F1002322E1003C
:100AB800EF20506B83278100930509FBB305B40031
:100AC80023A0040623A2040693F505FF23A8F50234
:100AD800B7270000032741000328C1009387078830
:100AE80023A6F504B71700008320C102032481025E
:100AF8009387C7A523A4350323A6E50223AA0503E4
:100B080023A4F50423A6B402032901028324410285
:100B18008329C10113010103678000009386D8016E
:100B280013064004E378D6F637460000B7450000C0
:100B380037450000930680011306C6FB9385050020
:100B48001305450A23221101EF00107F8328410075
:100B580037450000930630FE13067002938508009F
:100B68001305450CEF00507D6F000000130101FFD5
:100B780093070500138505009305060013860600F4
:100B880023261100E7800700EF204069EF2010605E
:100B9800638605002322C5006780000083270500BF
:100BA80093F717003366F6002320C500678000001E
:100BB80083270500130101FE232C8100232A9100BD
:100BC8002328210123263101232E11009309050032
:100BD800138905002320F60013040600930410006F
:100BE80083250400639225038320C1010324810126
:100BF8001385040003290101832441018329C100CD
:100C0800130101026780000083A74900130509004A
:100C1800E780070083270400631E050083A74700B9
:100C280013044400E38207FC938414002320F40097
:100C38006FF01FFB83A7070093F7E7FF6FF05FFED6
:100C480093972500130101FD938787FF23286101EE
:100C5800330BF5002320210303290B00938747005A
:100C680023229102B304F50023248102832749003B
:100C780003A40400232C410123267101330AF44004
:100C880023261102232E3101232A5101933B1A00F6
:100C9800631CF408832A4400333A4001630CF408C7
:100CA800832944009307200063DEB7000325CBFFA8
:100CB8001306040083254500B385254193B5150027
:100CC800EFF01FED13860A0093850B00130504004F
:100CD800EFF01FEC1306090093050A001305040042
:100CE800EFF01FEB1386090093850B00130509002D
:100CF800EFF01FEA8320C10223208B000324810226
:100D080023A024018329C10183244102032901026C
:100D1800032A8101832A4101032B0101832BC1008E
:100D28001301010367800000832A040093FAEAFF95
:100D38006FF09FF68329040093F9E9FF6FF09FF69F
:100D4800130101FD23267101B70B0040232E310149
:100D580023286101232481012320A10123261102D4
:100D6800232481022322910223202103232C4101E1
:100D7800232A510123229101130D050093890500AF
:100D8800130B0600130C1000938BFBFF63583C0FEA
:100D9800338A7901131A2A00330A4D018324CAFFC2
:100DA80003290A0083AC4400B30A994193BA1A0094
:100DB80013840C006316990103A404001374E4FF60
:100DC8008327040093F717006390070493850900AD
:100DD80023208A0013050D00EFF09FE683A7040087
:100DE8009389190093F7E7FF23A0F40083270400F1
:100DF80083240A0093E717002320F40023222A0102
:100E08006304990703A44400032A04000327440049
:100E1800137AEAFF63080A0083270A0093F717008A
:100E2800638A0708630807008327070093F71700FA
:100E3800638A070E631A69011306000093850A0086
:100E480013850400EFF0DFD48327040093F7E7FF4E
:100E58002320F40083A7040013F71700630C07008E
:100E68009389F9FF6FF09FF203A404001374E4FF61
:100E78006FF09FF993E7170023A0F4008320C102C5
:100E88000324810283244102032901028329C10129
:100E9800032A8101832A4101032B0101832BC1000D
:100EA800032C8100832C4100032D01001301010351
:100EB80067800000930707006314990193070A00ED
:100EC8006396070663149901130A0700939B290088
:100ED800938BCBFFB30B7D0123A08B0023A24B0187
:100EE8009385190013050D00EFF09FD583270400A3
:100EF80093F7E7FF2320F40083270A0003A40B00DD
:100F080093E717002320FA00630899018327440018
:100F180023A02B016F0040028327040093F7E7FF0B
:100F28006FF01FFF93070700E30A99F983A60700EC
:100F380093F61600E39806F80327040083A6040036
:100F4800938509001377E7FF93F616003367D700F8
:100F58002320E40003A7040013050D0013671700FE
:100F680023A0E40003A707001367170023A0E700E6
:100F780093972900B307FD0023AE87FEEFF05FCCFF
:100F8800E31E69EF032481028320C10203290102C1
:100F98008329C101032A8101032B0101832BC1008D
:100FA800032C8100832C4100032D010093850A0046
:100FB80013850400832A410183244102130600009B
:100FC800130101036FF0DFBC83A7850003A70500A9
:100FD800938717009396270023A4F5003307D700BB
:100FE8002320A70003A7450093061000B307F700C6
:100FF800238007000325050083A7850003A70500B4
:101008001375E5FF631A050093972700B307F700E8
:1010180003A5070067800000938717001396270031
:1010280023A4F5003307C7002320A70003A7450022
:10103800B307F7002380D7006FF0DFFB0325050017
:1010480063080500638C0500832745006394070047
:1010580067800000138507006FF09FFE8327050057
:1010680093F7E7FF6FF09FFE130101FD2324810230
:1010780023229102232E310123261102232021034A
:10108800232C4101232A51012328610123267101C0
:101098001304010383A7050023A205009309050093
:1010A80093F7170023A0F500832705009384050014
:1010B8006396070423A0B900930710002324F500C2
:1010C80083A7050093E7170023A0F500130104FD8B
:1010D8008320C102032481028324410203290102DF
:1010E8008329C101032A8101832A4101032B0101BC
:1010F800832BC1001301010367800000832785004B
:10110800930A0100939727009387670193F707FFD6
:101118003301F140130A010013060A00EFF05FA93A
:10112800931725003309FA00832BC9FF83A74900C9
:10113800130B050093850B0013850400E780070057
:10114800138604009335150013850B00EFF05FA498
:1011580083A70400130B1B002320990093F7E7FFD4
:1011680023A0F400130810009307090093040B0050
:10117800634A980003270A008327070093E71700AC
:101188006F00800C83A6C7FF938BC7FF03A70600D9
:1011980013771700631C070A03A687FF138987FFC5
:1011A80003274600B385E64093B515006396E6002D
:1011B800032706001377E7FF6300070403250700EA
:1011C80093070900137515006318050283250600A7
:1011D8009384E4FF93F5E5FF2320B60003A60600F9
:1011E8001366160023A0C6008326070093E61600A0
:1011F8002320D7006FF0DFF793972400B307FA0096
:1012080083A7C7FF03A74600B387E74093B7170034
:101218006388B7009385040013050A00EFF05FA206
:101228009385F4FF13050A00EFF09FA10327090037
:101238008327070093E717002320F70003A70B0075
:101248008327070093F7E7FF2320F70083A7890088
:1012580063D4670123A4690183270A0023A0F90046
:1012680013810A006FF09FE6130101FD2324810218
:1012780023229102232C4101232A510123286101B1
:10128800232671012326110223202103232E310155
:10129800232481012322910113040103832785005C
:1012A800930B0100130B05009397270093876701A1
:1012B80093F707FF3301F140930A010013860A00F0
:1012C80093840500EFF0DF8E131A2500338A4A0154
:1012D8008327CAFF6394971003A9040093090500A4
:1012E8001379E9FF6306090C83A744006382070C9E
:1012F800930710001305000063D4370103258AFF04
:101308009389190023202A0113070A00832749001B
:101318001307470063920710139C2900338C8A0136
:10132800832C8CFF630205108325450013060900F2
:10133800B385954093B51500EFF09F85639A940F98
:101348000327090083A704001377E7FF93F7170023
:10135800B3E7E70023A0F4008327090093F71700F9
:10136800B3E7F4002320F90083A744002322F900FF
:101378000327CCFF8327CAFF23A20400232EEAFEFB
:10138800232EFCFE83A604000327090093F7E6FF3B
:10139800137717003367F70023A0E40083270900B9
:1013A80093F6160093F7E7FFB3E7D7002320F90079
:1013B80083A7040013F9E7FF631A09141307100041
:1013C80003A94400634C370B23202B016304090A4B
:1013D8008327090093E717002320F90013810B00E6
:1013E800130104FD8320C1020324810283244102E6
:1013F800032901028329C101032A8101832A4101AA
:10140800032B0101832BC100032C8100832C410095
:101418001301010367800000938919002320F70056
:10142800138907006FF09FEE23202B016FF01FF147
:1014380083A54C001386040013850C00B385254151
:1014480093B51500EFF0CFF403A704008326090035
:101458009377170093F6E6FFB3E7D70023A0F400CD
:10146800832709001377E7FF93F71700B3E7E7002F
:101478006FF05FEF23240B006FF05FF6139A2900DB
:10148800338A4A0103258AFF6318090293F7170074
:10149800138604006394070683254500130600009D
:1014A800B385954093B51500EFF08FEE83A70A003A
:1014B8002320FB006FF09FF28325450013060900E7
:1014C800B385954093B51500EFF08FEC83A7040022
:1014D80093F71700638807008327090093F717001D
:1014E800639A07008327090093E717002320F90070
:1014F8006FF0DFFB232E2AFF1306000093850900F7
:1015080013850A00EFF0DF836FF05FFA130710000E
:10151800E34637F723202B016FF09FEB03250500E7
:101528009387050063160500130500006780000017
:1015380083A685001307F0FF6394E6006FF0DFA829
:1015480003A60500139726003307E60003250700C6
:1015580003254500E31405FE83A545003385D50022
:1015680003450500630C05009386F6FF23A4D70006
:101578000325C7FF6780000023A4E70083A6870030
:101588001387F6FF6358D000B386D50083C60600DC
:10159800E38406FE23A4E700E34807F813172700AF
:1015A8003307E600032507006780000013050000E5
:1015B8006780000083A705009387170023A0F50024
:1015C800B757000003A3070067000300130101FCDD
:1015D800232C810223263103232441032320610382
:1015E8002328A101232E1102232A91022328210353
:1015F80023225103232E7101232C8101232A9101D7
:101608002326B10193090500138A0500130D06006E
:10161800138B0600130410006354E0001304070042
:1016280093071000930C00026314FB00930C000353
:10163800B7D49A3B13091000930AA000130C0000BA
:101648009384F49F930D2000938B140063140C0073
:1016580063F2A40B93850B0013050D00EFE09FD0F8
:1016680093050A0013050503E7800900130919000B
:10167800130C100093850B0013050D00EFE01FD32A
:10168800130D05009305A00013850400EFE09FCD1E
:10169800938AFAFF9307100093040500E396FAFA79
:1016A80093050A0013050D03E7800900930730002E
:1016B800330424416306FB068320C103032481030A
:1016C80083244103032901038329C102032A8102D8
:1016D800832A4102032B0102832BC101032C8101C0
:1016E800832C4101032D0101832DC1001301010445
:1016F80067800000E34054F9E3EE6DF793050A00B4
:1017080013850C00E7800900130919006FF09FF694
:1017180093050A0013050002E78009001304F4FF8B
:10172800E34880FE6FF05FF9B757000023A0A700D9
:1017380067800000130101FB232481042322910404
:1017480023202105232E3103232C4103232A51036F
:1017580023286103232671032322910323261104DE
:10176800232481032320A103232EB1019304050020
:1017780013890500130B060013840600930A000062
:101788009309F0FF130A0000930C0000930B10005C
:10179800034C0B0063100C048320C1040324810450
:1017A80083244104032901048329C103032A8103F3
:1017B800832A4103032B0103832BC102032C8102DB
:1017C800832C4102032D0102832DC1011301010560
:1017D8006780000063900C02130750026306EC3028
:1017E8009305090013050C00E7800400130B1B0088
:1017F8006FF01FFA130740066304EC126362870751
:1018080013079003636A8703130710036378EC0ECA
:101818001307D0026304EC0C930700036304FC0C69
:10182800930750026312FC02930509001305500246
:10183800E78004006F00C012130780056302EC18EC
:10184800930730066308FC28930509001305500226
:10185800E78004009305090003450B006FF05FFD66
:1018680013070007630EEC126360870313079006E3
:101878006308EC0A1307C0066300EC0A1307800626
:10188800E306ECF66FF05FFC130750076308EC0EF5
:10189800636E870393073007E318FCFA832C040070
:1018A800130C440013840C00034504006312052044
:1018B800930730006318FA00330494413384894055
:1018C8006340802013040C006F0080091307800711
:1018D8006308EC0E1307A0076FF09FFA130A300095
:1018E8006FF0DFF063DE0900630A0A2093090CFD3C
:1018F800E31E0AEE130A20006FF05FEFE3C809FE4B
:10190800138509009305A000EFE09F9A3305850130
:10191800930905FD6FF0DFFD938A1A006FF01FED44
:1019280063C45B05032604001304440063500602E5
:10193800930509001305D0022324C100E7800400A1
:10194800032681009389F9FF3306C04013870900F5
:1019580093060A009305090013850400EFF01FC7DA
:10196800930C00006FF09FE813047400937784FFD2
:101978001384870003A607006FF05FFB63C85B0151
:1019880003260400130444006FF05FFC1304740082
:10199800937784FF1384870003A607006FF01FFB6B
:1019A8009305090013050003E78004009305090067
:1019B80013058007E780040093098000130A1000CC
:1019C80063C45B0583270400130444002324F10047
:1019D80013068000130C0000930D0000130D800007
:1019E80083278100130DFDFF13172D0033D7E70060
:1019F8001377F700631A070263940D0063100D084C
:101A0800130500036F00000313047400137784FFA9
:101A180083270700130487002324F1006FF05FFB7E
:101A28000326C1006FF0DFFB9307900013057005D4
:101A3800E3F8E7FC930509003305A7002326C10056
:101A4800130C1C00E7800400938D0C00E31A0DFCB6
:101A580013073000930C0000E31AEAD89397190093
:101A6800338C8741E35E80EF93050900130500027C
:101A7800E7800400130CFCFF6FF0DFFE9307F6FF0E
:101A88002326F100E3C4C9FC631A7A01930509000F
:101A980013050003E78004006FF05FFB9307200045
:101AA800E316FAFA93050900130500026FF09FFE8A
:101AB8009305090013041400E78004006FF0DFDECB
:101AC8009305090013050002E78004001304F4FFDE
:101AD8006FF01FDF0325040093050900130C440071
:101AE800E78004006FF01FDE930A00009309F0FFFF
:101AF800130A0000930C10006FF05FCF130A100058
:101B08006FF0DFCE130101FE130605003715000044
:101B1800938605001305C55B9305C100232E1100AC
:101B280023260100EFF01FC18320C1010325C10056
:101B38001301010267800000130101FC2322B10296
:101B480093054102232E11002324C1022326D1022A
:101B58002328E102232AF102232C0103232E110357
:101B68002326B100EFF01FFA8320C10113010104FD
:101B78006780000067800000130101FF23248100B3
:101B88002322910037540000232611009307A00058
:101B98009304050013044404631CF50003250400A2
:101BA8009305D0008327450083A74700E7800700F7
:101BB8000325040093F5F40F8327450083A7470006
:101BC800E78007008320C1000324810013850400F7
:101BD80083244100130101016780000037250000BC
:101BE800130505B86FF05FB437450000130101FF16
:101BF8001305450F23261100EF000034B7570000E6
:101C080023A2A704EFF09FFD8320C1001305000065
:101C18001301010167800000B757000003A54701C1
:101C2800130101FF23261100EF1000631305700054
:101C3800EFE09FB937E70000B757000083A7870197
:101C4800832607008325470013D6F741B386D700BC
:101C5800B3B7F6003306B6002322D7008320C100AD
:101C6800B387C7002324F70013057000130101018F
:101C78006FE09FB4130101FF1305700023261100C4
:101C8800EFE09FB437E70000B757000083A787014C
:101C9800832607008325470013D6F741B386D7006C
:101CA800B3B7F6003306B600B387C7002322D700C0
:101CB800130570002324F700EFE01FB08320C10054
:101CC8001305000013010101678000008347050028
:101CD80003C705006396E7006398070013870700AA
:101CE8003385E740678000001305150093851500CC
:101CF8006FF0DFFD130101FDB347B5002324810216
:101D080023229102232E31012326110223202103AD
:101D180093F7370093090500938405001304050021
:101D2800638207043306C400631EC4088320C1020B
:101D38000324810213850900832441020329010237
:101D48008329C1011301010367800000E30006FE37
:101D58009384140083C7F4FF130414001306F6FFDA
:101D6800A30FF4FE93773400E39207FE1387040071
:101D7800930704003305C40093063000B305F5400B
:101D880063E8B60213592600130509009305C0FF3E
:101D98002326C100EFE0CFD10326C1001319290083
:101DA800330424013306A600B38424016FF09FF79F
:101DB800130747008325C7FF9387470023AEB7FE65
:101DC8006FF0DFFB9384140083C7F4FF130414003F
:101DD800A30FF4FE6FF05FF5130101FE232A9100B3
:101DE80023282101232E1100232C810093040500B0
:101DF80013F9F50F9307050013F737006318070663
:101E080093F5F50F13978500B365B7001397050190
:101E1800B365B7003388C7001387070093063000FF
:101E28003305E84063EEA604135526001314250075
:101E38009305C0FF2326C10033848700EFE04FC716
:101E48000326C1003306C5003306C4006310C4046A
:101E58008320C101032481011385040003290101A2
:101E6800832441011301010267800000E30206FE9A
:101E780093871700A38F27FF1306F6FF6FF0DFF78E
:101E880013074700232EB7FE6FF09FF913041400C1
:101E9800A30F24FF6FF09FFB832705001385050020
:101EA80083A7870083A707002380B7006780000007
:101EB800832705001305000083A7870083A7070071
:101EC80083C707002380F500678000001305000022
:101ED8006780000013172500B74700001305150099
:101EE8009387471113152500130101FF3387E70076
:101EF800B387A7002324810023229100032407002D
:101F080083A4070023261100636C94008320C1007A
:101F1800032481008324410013010101678000002C
:101F280083270400130504001304C40083A7470093
:101F3800E78007006FF05FFD130101FFB75700004E
:101F480023229100B7540000232481002326110086
:101F58001384C701232021019387C70193840404B4
:101F6800631C94001309050013840700631494028A
:101F7800130400006F0040040327440063080700AF
:101F880003270400032707006308A7021304C400FB
:101F98006FF01FFD83274400639607001304C400F5
:101FA8006FF0DFFC832704001305090083A50700F1
:101FB800EFF0DFD1E31405FE130504008320C10010
:101FC8000324810083244100032901001301010136
:101FD80067800000130101FF2324810023261100DC
:101FE80013048000F3370430EFE00FFC6FF09FFF1D
:101FF80037550000B75700001306050493870749B3
:102008003386C74093050000130505046FF0DFDC35
:1020180037550000B75700001306050093870704DB
:10202800B74500003386C74093850543130505006F
:102038006FF05FCC130101FF130520002326110068
:10204800EFF05FE93745000013058512EFF0DFAECA
:1020580013053000EFF01FE8EF10C07BEFE04FDF13
:10206800B75700009387873503C787001377E7FFC3
:102078002384E7008320C100130101016780000069
:10208800130101F6232A910893040101130600079E
:102098009305000013850400232E1108232C8108C2
:1020A8002328210923263109EFF01FD3EFE0CFF2CF
:1020B80037540000B777000093094444938707E931
:1020C8001305000023A2F900EFF0DFE0130510006C
:1020D800EFF05FE09307101023A49900231CF10090
:1020E800EF0050723759000093071000B726000020
:1020F800B7650000930489352320F1001307000019
:102108009307000093080000130800009386C60395
:1021180013060020938505691305893523AE9900B8
:10212800EF10C05983C794001304444413F7B7FF52
:10213800A384E40093F7B701639C070003A7440254
:102148009307F0FF6316F70013058935EF00500673
:102158003755000093071000B7260000B775000038
:102168009304852E2320F1009308800213080000B1
:1021780093070000130700009386C6FD130600208E
:10218800938505891305852EEF10405383C7940066
:102198002326940093F7B7FFA384F400B7570000F1
:1021A80093878745232AF400232CF4001304800026
:1021B80073340430EF00506413758400EFE00F8926
:1021C800B757000003A74744130101FF2326110056
:1021D800630A070237460000B7450000374500008C
:1021E8009306600F1306461D9385851F1305450A40
:1021F800EFF09F94374500001305C5CDEFF0DF934E
:102208006F0000009387474403A7870093061000D8
:102218008347B700639AD70237460000B7450000E6
:10222800374500009306700F1306461D9385052158
:102238001305450AEFF05F90374500001305C5CD3B
:10224800EFF09F8F6F0000009387F7FFA305F7005B
:102258008320C100130101016780000023240500C9
:10226800232605002320A5002322A500678000005F
:10227800130101FE232C81002328210113040500EA
:10228800232E1100232A910013890500EFF05FF334
:102298000327C400B7570000938747446300070229
:1022A8000326840083A687006308D604631A0904FA
:1022B800EF00403B130500FF6F00800283A68700F4
:1022C8008386A60083A78700130717002328D40056
:1022D8002326E4002324F400EF00C038130500008F
:1022E8008320C101032481018324410103290101C1
:1022F8001301010267800000832604016FF09FFC30
:102308008307A6008385A60063D4B70093850700DA
:1023180063D405009305000093048000F3B40430EF
:102328000325840093F484008307A50063D4F50093
:10233800EF00D02713060900930504001385040055
:10234800EF0050232326A10063180500EF00803119
:102358000325C1006FF0DFF88327040083250401FB
:10236800630EF400638C07008387A70063D4B7006B
:102378009385070063D4050093050000930480004B
:10238800F3B404300325840093F484008307A50084
:102398006384F500EF009021F3A40430EF00802C53
:1023A800130550FF6FF0DFF38327C500130101FF0A
:1023B80023261100232481002322910023202101B8
:1023C800639A070237460000B7450000374500000A
:1023D8009306800D130646169385C5191305450AFD
:1023E800EFF08FF5374500001305C5CDEFF0CFF4BA
:1023F8006F000000B75700000327850083A7C74474
:1024080013040500630AF70237460000B7450000C9
:10241800374500009306900D130646169385451B15
:102428001305450AEFF04FF1374500001305C5CDF8
:10243800EFF08FF06F000000EFF09FD88327C40003
:102448009387F7FF2326F400638E07000324810097
:102458008320C100832441000329010013010101E5
:102468006F00402093048000F3B4043003258400F7
:102478008325040193F484008307A5006384F50091
:10248800EF00D01213050400EF0000402324A4003D
:1024980013090500630E05028347950093F7F701BA
:1024A800639A0700032745029307F0FF6314F700B8
:1024B800EF000050F3A704308327C4002326090641
:1024C800938717002326F4008307A9002328F40024
:1024D800F3A404306FF09FF7832605019307F0FFFC
:1024E8006380F604375700000327C7458327050094
:1024F8006308E50003A707013307D70023A8E7000F
:10250800032745002320F7008327050023A2E700BF
:102518009307F0FF2328F5001305000067800000EB
:102528001305F0FF678000000307A5008386A50058
:1025380093071000634CD7009307000063C8E600B8
:102548008327C50003A5C500B3B7A70013850700F7
:10255800678000001305800073350530137585000A
:1025680067800000130101FF232481001304050084
:102578003755000093050000130545462326110032
:10258800EFE0DFABB75700009387474463140500BB
:1025980003A5C700631E040203A78700630A070296
:1025A8008346970093F6F6016394060203264702D2
:1025B8009306F0FF631ED6000356A7009306F007A4
:1025C80063F8C600B756000083A60601631CD7004F
:1025D80023AEA7008320C100032481001301010159
:1025E8006780000023AEE7006FF0DFFE130101FFF4
:1025F800232481002326110013040500EFF09FF522
:1026080093070500032504006314A40013050000C4
:1026180093F78700F3A707308320C10003248100C4
:102628001301010167800000B757000083A64744E3
:1026380013070500639006029387474483A6870023
:1026480083A7C7016388F600B757000023AC074685
:102658006FD0DFBF1377870073270730130500009B
:1026680067800000130101FFB75700002322910083
:102678009384474403A78400232611002324810060
:102688000347B700631A070237460000B745000042
:10269800374500009306001A1306862E93850532E7
:1026A8001305450AEFF04FC9374500001305C5CD9E
:1026B800EFF08FC86F00000083A74744638A0702C2
:1026C80037460000B7450000374500009306101A4A
:1026D8001306862E9385851F1305450AEFF0CFC58F
:1026E800374500001305C5CDEFF00FC56F0000009A
:1026F800EFF05FE603A7840013040500130510003C
:102708008347B7001374840093871700A305F70065
:10271800EFF05FE57324043013058000733505304E
:10272800032481008320C1008324410013758500A0
:10273800130101016FF05FEFB757000083A707018E
:10274800639EF50237460000B74500003745000094
:10275800130101FF9306901D1306862E9385452AC3
:102768001305450A23261100EFF00FBD3745000079
:102778001305C5CDEFF04FBC6F000000832705009F
:102788006300F504638E07020387A5008386A7000C
:102798006350D70203A7470023A0F50023A2E50052
:1027A80003A747002320B70023A2B70067800000D3
:1027B800832645006386D70083A70700E39807FCB4
:1027C8008327450023A0A50023A2F5008327450001
:1027D80023A0B7002322B50067800000B757000088
:1027E80083A70701639EF50237460000B74500003E
:1027F80037450000130101FF9306801E1306862E3D
:102808009385452A1305450A23261100EFF0CFB218
:10281800374500001305C5CDEFF00FB26F0000007B
:1028280003A7050083A7450023A0E70003A7050029
:102838002322F70067800000130101FF23261100FF
:10284800232481002322910093040500EFF09FD0F8
:10285800130405009385040013050000EFF01FF82A
:1028680083C794001374840093F7D7FFA384F400FC
:10287800732404308320C100032481008324410091
:102888001301010167800000130101FF9305000097
:102898002324810023261100EFF05FD513040500DF
:1028A80063080500EFF05FF913054401EFF0DFC29C
:1028B800130504008320C1000324810013010101D2
:1028C80067800000130101FE232C8100232E1100D4
:1028D800232A91002328210113040102B75700007D
:1028E80083A70701639AF50237460000B745000041
:1028F80037450000930670201306862E9385452AD7
:102908001305450AEFF04FA3374500001305C5CD61
:10291800EFF08FA26F0000000327C50093040500A5
:1029280013890500930717002326F50023A6E50061
:102938006392070483278500139727001307E7018D
:10294800137707FF9387E7013301E14093F707FF08
:10295800232224FE3301F1409307F0FF232424FEB1
:102968002326F4FE930544FE13850400EFE01FBB05
:10297800631605029305090013850400EFE0CFEE06
:10298800130104FE8320C101032481018324410132
:1029980003290101130101026780000083A7C40015
:1029A8001387170023A6E4002326F5006FF09FFB8A
:1029B800130101FF23261100232481002322910003
:1029C80093040500EFF01FB9130405003755000004
:1029D8009385040013054546EFF0DFEE83C79400A6
:1029E800130500001374840093E70704A384F4001C
:1029F800EFF05FB7732404308320C1000324810003
:102A0800832441001301010167800000834795007A
:102A180093F7F701639A0700032745029307F0FF2E
:102A28006314F7006FF0DFF867800000130101FFFF
:102A380023261100232481002322910063DA060251
:102A480037460000B7450000374500009306800C64
:102A5800130686239385C5251305450AEFF0CF8D08
:102A6800374500001305C5CDEFF00F8D6F0000004E
:102A780023A8D50023A4A50023A6C5009304050018
:102A8800639E060613048000733404309307F0FF36
:102A980023A8F500137484006300050483A7C50008
:102AA80063860700EFF05FD923A0040283C7940070
:102AB8001385040093F7B7FFA384F400EFF01FF524
:102AC800732404308320C10003248100832441003F
:102AD80013010101678000007324043003A345013A
:102AE800E30203FE032481008320C1008324410004
:102AF8001385050013010101670003003757000023
:102B08009306474483A746013755000013058545BA
:102B180003A88601130747446386A7046384070450
:102B280083A6050103A607016344D60203A747004D
:102B3800B306D64023A8D70023A2E50003A7470081
:102B480023A0F5002320B70023A2B7006FF09FF75A
:102B5800B386C64023A8D5006386070183A707006C
:102B68006FF0DFFB23A205018327870123A0A500BF
:102B780023A0B700232CB7006FF0DFF4B75700008D
:102B880083A70701130101FF2326110023248100D5
:102B9800639AB70237460000B74500003745000082
:102BA8009306C0211306862E9385452A1305450AE8
:102BB800EFE09FF8374500001305C5CDEFE0DFF7DC
:102BC8006F00000013040500EFE00FEA83270400FC
:102BD80063940700232604008320C1000324810096
:102BE8001301010167800000130101FF2326110072
:102BF800232481002322910023202101930405002E
:102C080037590000EFF01F95938504001304050061
:102C180013054946EFF09FF69385040013054946CE
:102C2800EFF05FCA83C79400130500001374840093
:102C380093E70704A384F400EFF0DF9273240430D1
:102C48008320C1000324810083244100032901005B
:102C58001301010167800000130101FF2324810093
:102C6800232291001304050023261100EFF09F8E04
:102C7800834794009304050093F70704638A0702C7
:102C8800375500001305454693050400EFF01FEF84
:102C98008347940093F7F7FBA304F400B7570000A9
:102CA80003A5C7443305854013351500EFF09F8B06
:102CB80093F48400F3A404308320C100032481002A
:102CC800832441001301010167800000130101FE04
:102CD800232A910023282101930405002326C100FB
:102CE800232E1100232C810013890500EFF0DFF655
:102CF80083C794000326C10093E72700A384F40048
:102D08009307F0FF630AF60213048000733404305B
:102D18009305A00013059600EFD04FE49306150025
:102D2800130609009385440113850400EFF01FD0B2
:102D3800137484007324043063020902032481019C
:102D48008320C101938504001305090083244101F0
:102D580003290101130101026FF01F9E8320C101A5
:102D68000324810183244101032901011301010284
:102D780067800000130101FFB7570000232481007A
:102D88001304050003A5C74423261100EFF01FF420
:102D980013050400032481008320C100B7570000F5
:102DA80023AC0746130101016FD04FCA130101FE7E
:102DB800232C8100232A91002328210113040500D4
:102DC80013890500232E110023263101EFF08FF817
:102DD80083479400131989019304050093F7F701B9
:102DE8001359894163980706032744029307F0FFA4
:102DF8006312F706B7590000930504001385494686
:102E0800EFF0DFD793050400138549462305240115
:102E1800EFF05FAB13051000EFF0CFF4930710004D
:102E280093F48400F3A40430638C07021305800034
:102E380073350530032481018320C10183244101B6
:102E4800032901018329C1001375850013010102BB
:102E58006FF08FFD23052401930700006FF05FFCDE
:102E68008320C10103248101832441010329010135
:102E78008329C1001301010267800000130101FFCB
:102E88002326110023248100635A050237460000D7
:102E9800B745000037450000930670251306862EB7
:102EA8009385852B1305450AEFE01FC937450000B8
:102EB8001305C5CDEFE05FC86F00000093077002EF
:102EC8001384050063FAB70237460000B7450000CF
:102ED80037450000930680251306862E9385C52C5A
:102EE8001305450AEFE05FC5374500001305C5CD5A
:102EF800EFE09FC46F0000009305A0001305950044
:102F0800EFD0CFC5B757000023A4A748B757000094
:102F180023AC0746B757000023A687488320C10083
:102F2800032481001301010167800000130101FFE0
:102F3800B75700002320210103A9C7442326110005
:102F48002324810023229100630AA9023746000046
:102F5800B745000037450000930660261306862E05
:102F6800938585281305450AEFE01FBD3745000006
:102F78001305C5CDEFE05FBC6F000000B757000038
:102F880083A7874813040000635AF0040357A90075
:102F98009307F00763E4E704B75700000307A900A5
:102FA80083A7C748634CF702EFF0CFDA9304050014
:102FB800375500009305000013054546EFE00F88DC
:102FC800630A05000304A9008307A5003304F4403D
:102FD8001334140093F48400F3A40430130504009C
:102FE8008320C100032481008324410003290100B8
:102FF8001301010167800000B757000023AC0746A2
:1030080067800000B75700003727000093874744C0
:1030180013070753930500001305000023A00702B8
:1030280023A4070223A6070223A2E7026FF01FE5E5
:103038000305A50067800000130101FF2324810018
:10304800375400008327444423261100232291008B
:1030580023202101638A070237460000B745000094
:10306800374500009306D0301306862E9385851FBA
:103078001305450AEFE05FAC374500001305C5CDE1
:10308800EFE09FAB6F0000009307444403A787005D
:10309800B757000083A7070113044444630CF702E1
:1030A800EFF04FCB832584003759000093040500C7
:1030B80013054946EFF09FAC832584001305494664
:1030C80093F48400EFF01F8013051000EFF08FC910
:1030D800F3A40430032784008327C4016308F7029C
:1030E8001305800073350530032481008320C10057
:1030F8008324410003290100B757000023AC074689
:1031080013758500130101016FD04F948320C1000E
:1031180003248100832441000329010013010101D4
:1031280067800000130101FE232C81003754000042
:1031380083274444232E1100232A9100638A07021F
:1031480037460000B7450000374500009306D032E7
:103158001306862E9385851F1305450AEFE0DF9D2C
:10316800374500001305C5CDEFE01F9D6F00000037
:103178009307F0FF631AF50237460000B7450000D1
:10318800374500009306E0321306862E93854527BF
:103198001305450AEFE05F9A374500001305C5CDD2
:1031A800EFE09F996F000000631C05000324810174
:1031B8008320C10183244101130101026FF0DFE77D
:1031C8009305A00013059500EFD04F99130515003E
:1031D8002326A10093048000F3B40430130444446C
:1031E80003258400EFF05FA7032584008326C10030
:1031F8001306000093054501EFF05F830324810166
:103208008320C101B757000013F5840083244101CE
:1032180023AC0746130101026FD04F83B757000054
:1032280003A5C74467800000B757000003A50748F7
:1032380083A54748130101FF1306A0009306000069
:103248009305000023261100EFD0CF888320C1000A
:103258001301010167800000130101FD232291027F
:10326800232611022324810223202103232E310146
:10327800232C4101232A51012328610193040500CD
:1032880013078000F3370730375500000326054839
:103298008326454893D5F4413388C400B338980051
:1032A800B385D500B386B800232005492322D54825
:1032B80093F78700F3A70730130681002324C10082
:1032C8002326C10073370730B75900009387494454
:1032D80083A74701B7560000938686451377870072
:1032E800938949446382D70893860400638E07064E
:1032F8009308E0FF1308800083A5070163DED50C5F
:1033080023A8070003A58901B386B64093050000EA
:103318006304F50083A5070003A507016314050CE2
:1033280003A3070003A547002320650003A30700A4
:103338002322A3000325810023A2C70023A0A700FE
:10334800032581002324F1002322F50023A8170177
:103358007327073073370830137787009387050082
:10336800E39C05F86F0040087327073003A5890020
:10337800EFF0DFBB630E0502B757000003A78747CE
:10338800B384E400375700000327874823AC9746E7
:1033980063C0E40223AC074613048000733404308E
:1033A80003A5890013748400EFF01F84732404308C
:1033B8008320C102032481028324410203290102DC
:1033C8008329C101032A8101832A4101032B0101B9
:1033D80013010103678000003385D54023A8A700A7
:1033E8006FF05FF2E346D0F67327073003248100BD
:1033F800E30EC4F6E30C04F6130B8000930AF0FF07
:1034080003298400733A0B3023285401137A8A0065
:10341800630A09048327C4006388070013050900A9
:10342800EFF08FC1232009028347990013F7B7FFF4
:10343800A304E90093F7B701639A070083274902B9
:103448006396570113050900EFF08FD6732A0A30E7
:103458008327C100E30CF4F003240400E31204FA08
:103468006FF0DFF0732A0A3083274401E38207FEF6
:1034780013050400E78007006FF09FFD8326050110
:103488009307F0FF6380F604375700000327C7450A
:10349800832705006308E50003A707013307D70062
:1034A80023A8E700032745002320F700832705000A
:1034B80023A2E7009307F0FF2328F5001305000077
:1034C800678000001305F0FF6780000083479500C0
:1034D80093F7F701639A0700032745029307F0FF64
:1034E8006314F7006FF0CFCC67800000130101FF71
:1034F8002324810013040500138595009305A0007B
:10350800232611002322910023202101EFC01FE56B
:10351800130515009307800073B90730635A050235
:1035280037460000B7450000374500009306800C79
:10353800130686239385C5251305450AEFE0CFDFDB
:10354800374500001305C5CDEFE00FDF6F00000021
:103558002322A402232E8400232004021379890045
:10356800631E0504F3B7073093F487009307F0FF51
:103578002322F4028327040263880700130504004A
:10358800EFF08FAB23200402834794001305040057
:1035980093F7B7FFA304F400EFF05FF3F3A404304C
:1035A800732909308320C10003248100832441004A
:1035B800032901001301010167800000375700004B
:1035C8009306474483A746013755000013058545F0
:1035D8009305440103A88601130747446386A7049B
:1035E800638407048326440203A607016344D602C2
:1035F80003A74700B306D64023A8D700232CE4002E
:1036080003A74700232AF4002320B70023A2B7000A
:103618006FF01FF9B386C6402322D4026306F80070
:1036280083A707006FF0DFFB232C040183278701A2
:10363800232AA40023A0B700232CB7006FF05FF65D
:10364800B757000003A547443335A0006780000042
:10365800B757000083A7C74403C587001375150033
:1036680067800000130101FF232481002326110035
:1036780013048000733404300347950013748400E6
:1036880093764700639C0600732404308320C100AE
:103698000324810013010101678000001377B7FF3D
:1036A800A304E500EFF09FE2130504000324810062
:1036B8008320C100130101016FE01FF7130101FE10
:1036C80003230102232C8100232E110023206100F3
:1036D80013040500EFD04FB8B757000083A7C744BD
:1036E8008320C10183A787062324F40603248101CC
:1036F800130101026780000037530000032343448D
:10370800130101FE232A9100232E1100232C81008E
:1037180083244102630A030237460000B7450000CC
:103728003745000093064017130686349385851F96
:103738001305450AEFE04FC037450000130505386B
:10374800EFE08FBF6F0000000323010213040500A0
:1037580023206100EFF09FF69307F0FF6388F400E1
:103768006392040213050400EFF0DFEF1305040071
:103778008320C10103248101832441011301010233
:10378800678000009385040013050400EFF01FD63E
:103798006FF0DFFD83274506130101FF2324810015
:1037A800232611001304050063840700E78007003F
:1037B8008347940013F7F701631A0702832644022C
:1037C8001307F0FF6394E60213050400EFF0CFC877
:1037D8008347940093E78700A304F4008320C10083
:1037E80003248100130101016780000093F727007B
:1037F8006386070013050400EFF00F8403274402D3
:103808009307F0FFE306F7FC13054401EFF01FC729
:103818006FF01FFC130101FDB7570000232E310183
:10382800B759000023248102232291022326110282
:10383800232021031384070493840704938909042C
:1038480063603405B757000003A7474463080706B9
:1038580037460000B7450000374500009306600F63
:103868001306461D9385851F1305450AEFE0CFAC67
:10387800374500001305C5CDEFE00FAC6F00000021
:10388800832704022320F100832744018328C401ED
:1038980003288401032704018326C4000326840027
:1038A8008325440003250400EFF05FE1832704002B
:1038B80023A087061304C4026FF09FF89387474438
:1038C80003A78700930610008347B700639AD702BF
:1038D80037460000B7450000374500009306700FD3
:1038E8001306461D938505211305450AEFE0CFA46D
:1038F800374500001305C5CDEFE00FA46F000000A9
:103908009387F7FFA305F70013098000733909307F
:1039180013840400137989009304F0FF636234036D
:1039280073290930032481028320C10283244102C0
:10393800032901028329C101130101036FE09FD20A
:1039480083254402638895000325040063980500D5
:10395800EFF05FD11304C4026FF05FFCEFF01FB902
:103968006FF05FFF9307F0FF2304D500A304C500A1
:103978002305B500A30505002322F502232005022F
:10398800232E05002324050267800000130101FF90
:103998002324810023261100232291001304800090
:1039A800733404308347850093F71700638A07024E
:1039B80037460000B745000037450000930630023F
:1039C8001306463A9385453E1305450AEFE0CF9620
:1039D8003745000013054541EFE00F966F000000E2
:1039E80093040500EFF01FDBB757000003A7474417
:1039F80013748400630E0700732404308320C1000D
:103A08000324810083244100130101016780000021
:103A18009387474483A7870063989700EFF0CFDD2B
:103A280013050400EFC09F821305040003248100DE
:103A38008320C10083244100130101016FE0DFBE30
:043A48006780000093
:103A4C00DC3C0000F01B000000000000FC4000000B
:103A5C007C1C000000000000F4400000D41E00009C
:043A6C000450000002
:103A7000C8530000DC530000F05300000454000061
:103A8000185400002C5400006D757465786573003F
:103A900064796E616D6963001B5B324A1B5B313573
:103AA0003B314844656D6F2044657363726970747F
:103AB000696F6E0A2D2D2D2D2D2D2D2D2D2D2D2D9A
:103AC0002D2D2D2D0A416E20696D706C656D656E12
:103AD000746174696F6E206F66206120736F6C75FE
:103AE00074696F6E20746F207468652044696E6914
:103AF0006E67205068696C6F736F70686572730AC7
:103B000070726F626C656D20286120636C617373E5
:103B10006963206D756C74692D74687265616420C9
:103B200073796E6368726F6E697A6174696F6E2003
:103B300070726F626C656D292E0A5468697320700B
:103B40006172746963756C617220696D706C656D0A
:103B5000656E746174696F6E2064656D6F6E7374E9
:103B60007261746573207468652075736167652080
:103B70006F66206D756C7469706C650A707265652E
:103B80006D707469626C6520616E6420636F6F7024
:103B9000657261746976652074687265616473200A
:103BA0006F6620646966666572696E672070726907
:103BB0006F7269746965732C2061730A77656C6C28
:103BC00020617320257320257320616E6420746842
:103BD0007265616420736C656570696E672E0A009A
:103BE000202020202020205354415256494E472067
:103BF0002020202020200000202020484F4C444935
:103C00004E47204F4E4520464F524B20202000006B
:103C10002020454154494E4720205B2025732564D0
:103C2000206D73205D20000020202044524F505012
:103C30004544204F4E4520464F524B202020000047
:103C4000205448494E4B494E47205B20257325643C
:103C5000206D73205D200000430000005000000034
:103C60001B5B25643B256448000000005068696CBC
:103C70006F736F70686572202564205B25733A2529
:103C80007325645D20000000B00800006809000092
:103C900068090000A4080000B008000050090000F6
:103CA0005C0900000C3F00002C3F0000483F000072
:103CB0005C3F0000683F0000803F0000756E6B6E47
:103CC0006F776E00457863657074696F6E2063610D
:103CD00075736520257320282564290A00000000DB
:103CE0002A2A2A2A204B65726E656C20416C6C6F03
:103CF000636174696F6E204661696C75726521201D
:103D00002A2A2A2A0A0000002A2A2A2A2A204B655F
:103D1000726E656C204F4F505321202A2A2A2A2A7E
:103D20000A0000002A2A2A2A2A204B65726E656C36
:103D30002050616E696321202A2A2A2A2A0A00005B
:103D40002A2A2A2A20556E6B6E6F776E2046617480
:103D5000616C204572726F7220256421202A2A2A04
:103D60002A0A000043757272656E74207468726569
:103D70006164204944203D2025700A4661756C74B9
:103D8000696E6720696E737472756374696F6E20F3
:103D900061646472657373203D20307825780A2051
:103DA0002072613A2030782578202067703A2030E0
:103DB000782578202074703A203078257820207477
:103DC000303A20307825780A202074313A20307833
:103DD0002578202074323A203078257820207433DA
:103DE0003A2030782578202074343A2030782578AD
:103DF0000A202074353A2030782578202074363A0D
:103E00002030782578202061303A203078257820BD
:103E10002061313A20307825780A202061323A201A
:103E200030782578202061333A203078257820209A
:103E300061343A2030782578202061353A20307876
:103E400025780A202061363A2030782578202061B4
:103E5000373A20307825780A000000004953520094
:103E6000657373656E7469616C20746872656164F2
:103E700000000000466174616C206661756C7420FE
:103E8000696E20257321205370696E6E696E672EEE
:103E90002E2E0A00466174616C206661756C742078
:103EA000696E20746872656164202570212041620A
:103EB0006F7274696E672E0A00000000ADBAADDE45
:103EC000ADBAADDEADBAADDEADBAADDEADBAADDE2A
:103ED000ADBAADDEADBAADDEADBAADDEADBAADDE1A
:103EE000ADBAADDEADBAADDEADBAADDEADBAADDE0A
:103EF000ADBAADDEADBAADDEADBAADDEADBAADDEFA
:103F0000ADBAADDEADBAADDEADBAADDE496E73743D
:103F100072756374696F6E20616464726573732077
:103F20006D6973616C69676E65640000496E7374D6
:103F300072756374696F6E20416363657373206685
:103F400061756C7400000000496C6C6567616C20E1
:103F5000696E737472756374696F6E004272656125
:103F60006B706F696E7400004C6F616420616464F3
:103F700072657373206D6973616C69676E65640047
:103F80004C6F616420616363657373206661756C57
:103F90007400000053707572696F757320696E74D8
:103FA00065727275707420646574656374656421EC
:103FB000204952513A2025640A000000583A2F4700
:103FC00049542F72697363762D636F6E74657374D1
:103FD0002F7A65706879722F312E31332F7A6570A0
:103FE0006879722F617263682F72697363763332F6
:103FF0002F636F72652F7468726561642E630000B1
:10400000282828287072696F726974792929203DDF
:104010003D203430202626205F69735F69646C651B
:104020005F74687265616428287468726561645F92
:1040300066756E63292929207C7C20285F69735F5F
:104040007072696F5F6869676865725F6F725F65DC
:104050007175616C2828287072696F72697479298A
:10406000292C20283430202D2031292920262620D3
:104070005F69735F7072696F5F6C6F7765725F6F96
:10408000725F657175616C2828287072696F72693A
:10409000747929292C2028282D32392929292929E0
:1040A00000000000415353455254494F4E204641B1
:1040B000494C205B25735D20402025733A25643AE6
:1040C0000A090000696E76616C6964207072696F1C
:1040D0007269747920282564293B20616C6C6F77A4
:1040E00065642072616E67653A20256420746F20D4
:1040F0002564000075617274300000007379735F8D
:10410000636C6F636B000000B81E0000A01E00000F
:10411000000000001C50000034500000405000001F
:1041200040500000405000002A2A2A2A2A20426FCC
:104130006F74696E67205A6570687972204F5320DA
:104140007A65706879722D76312E31332E302D33A9
:104150002D6738366565643131366164202A2A2A34
:104160002A2A0A00583A2F4749542F7269736376F6
:104170002D636F6E746573742F7A65706879722F12
:10418000312E31332F7A65706879722F6B65726EBC
:10419000656C2F6D757465782E6300006D757465A0
:1041A000782D3E6C6F636B5F636F756E74203E207D
:1041B000300000006D757465782D3E6F776E657206
:1041C000203D3D205F6B65726E656C2E637572726B
:1041D000656E74002E2E2F2E2E2F2E2E2F6B6572B5
:1041E0006E656C2F696E636C7564652F6B736368A5
:1041F00065642E680000000021285F6B65726E65A3
:104200006C2E6E657374656420213D20302900009A
:104210005F6B65726E656C2E63757272656E742D60
:104220003E626173652E73636865645F6C6F636B78
:10423000656420213D2031002E2E2F2E2E2F2E2E74
:104240002F6B65726E656C2F696E636C7564652F7C
:1042500074696D656F75745F712E680074696D6542
:104260006F75745F696E5F7469636B73203E3D2088
:10427000300000006475726174696F6E20213D200A
:10428000282D312900000000746872656164203DAA
:104290003D205F6B65726E656C2E63757272656E24
:1042A00074000000215F69735F69646C652874683D
:1042B00072656164290000006475726174696F6ED3
:1042C0005F696E5F6D73203E3D203000287072691B
:1042D0006F203E3D20302920262620287072696FED
:1042E000203C203430290000583A2F4749542F727F
:1042F000697363762D636F6E746573742F7A65705E
:104300006879722F312E31332F7A65706879722F68
:104310006B65726E656C2F73636865642E63000055
:104320005F6B65726E656C2E63757272656E742D4F
:104330003E626173652E73636865645F6C6F636B67
:10434000656420213D203000583A2F4749542F7290
:10435000697363762D636F6E746573742F7A6570FD
:104360006879722F312E31332F7A65706879722F08
:104370006B65726E656C2F7468726561642E630084
:1043800054687265616473206D6179206E6F74206A
:104390006265206372656174656420696E204953AB
:1043A00052730000583A2F4749542F72697363764D
:1043B0002D636F6E746573742F7A65706879722FD0
:1043C000312E31332F7A65706879722F6B65726E7A
:1043D000656C2F7468726561645F61626F72742EC0
:1043E0006300000021287468726561642D3E62617B
:1043F00073652E757365725F6F7074696F6E73206D
:104400002620282831554C203C3C202830292929B9
:1044100029000000657373656E7469616C207468AF
:10442000726561642061626F7274656400000000EF
:10443000B415000000C0000000000000F5FFFFFF01
:0C444000E85200000100000020A107006D
:10444C00643A000008410000000000004C3A0000F3
:10445C000000000000000000583A000000000000BE
:04446C00000000004C
:00000001FF
