:100000009702000093820201739052306F00C06F1C
:10001000130101FB2320110023223100232441007E
:100020002326510023286100232A7100232CC101BB
:10003000232ED1012320E1032322F1032324A10253
:100040002326B1022328C102232AD102232CE10254
:10005000232EF1022320010523221105F32210345F
:1000600023245104F322003023265104EF00C01C46
:1000700013030000631E0502F3222034B70300803F
:100080009383F3FFB3F272001303B000638A62003C
:100090001305010097000000938040136F00005A81
:1000A0008322810493824200232451046F00C008FC
:1000B00093020100975300009383831C03A1430024
:1000C000130101FF2320510003AE0300130E1E0095
:1000D00023A0C301630803009700000093808003FE
:1000E0006F00005F73252034B70200809382F2FF17
:1000F00033755500EF004013930280271315350028
:10010000B382A20003A5020003A34200E70003009C
:10011000175300001303C316832303009383F3FFD5
:1001200023207300832201001381020083238300B4
:10013000032EC301630A7E08EF10101797520000C8
:100140009382021403A3820023288302232A9302AA
:10015000232C2303232E330323204305232253057B
:10016000232463052326730523288305232A930567
:10017000232CA305232EB305232623029753000027
:10018000938343EA03AE03002328C30703A3C201FA
:1001900023A462000321C302032403038324430333
:1001A000032983038329C303032A0304832A430403
:1001B000032B8304832BC304032C0305832C4305E7
:1001C000032D8305832DC30583228104739012348C
:1001D0008322C104739002308320010083214100F7
:1001E000032281008322C1000323010183234101F3
:1001F000032E8101832EC101032F0102832F4102AF
:10020000032581028325C1020326010383264103BE
:10021000032781038327C1030328010483284104A2
:10022000130101057300203013031000B312A30063
:1002300073B3423467800000F32220343703008018
:10024000B3F2620013050000638402001305150079
:100250006780000073000000975200009382420202
:1002600003A382008323030713758500F32205305F
:08027000138503006780000004
:10027800000000009C060000000000009C06000032
:10028800000000009C060000000000009C06000022
:10029800000000009C060000000000009C06000012
:1002A800000000009C06000000000000800E000016
:1002B800130605001305000093F615006384060075
:1002C8003305C50093D5150013161600E39605FEF1
:1002D800678000006340050663C6050613860500AF
:1002E800930505001305F0FF630C06029306100042
:1002F800637AB6006358C00013161600939616006A
:10030800E36AB6FE1305000063E6C500B385C54081
:100318003365D50093D6160013561600E39606FEED
:100328006780000093820000EFF05FFB13850500F3
:10033800678002003305A04063D80500B305B040CC
:100348006FF0DFF9B305B04093820000EFF01FF9BA
:100358003305A040678002009382000063CA05004D
:10036800634C0500EFF09FF71385050067800200D6
:10037800B305B040E35805FE3305A040EFF01FF683
:100388003305B04067800200130101FE232C810071
:10039800232A910023282101232631012324410106
:1003A800232E110013090500138A05001304060003
:1003B800B7290000B72400009305F0FF13050A00D1
:1003C800EF10100D1386C93E930509001385443FAD
:1003D800EF00901A1305401FEF10C07A13050400B0
:1003E800EF1090026FF05FFD37560000B755000020
:1003F80037550000130101FF130606089385050908
:100408001305050023261100EFF01FF8130101FE64
:10041800B7060000B7550000375500001306004026
:100428009385052C232201002320010093087000E6
:100438001308000093070000130700009386063F87
:100448001305850A232E1100EF10D04F37560000F0
:10045800B7550000375500001306060993850508AF
:1004680013058500EFF05FF293078000F3A70730CC
:100478007300501067800000930710003395A700A1
:100488007325453067800000930710003395A70057
:10049800733545306780000093078000F3B7073055
:1004A800735040307350403467800000130101FFDF
:1004B8002326110023248100930760006304F502BA
:1004C800EF10D03C63040502EF10503C631605049E
:1004D800B72500009385855E372500001305C55FA5
:1004E800EF009009EFF05FF86FF0DFFFEF10103BBF
:1004F800E31C05FC375400001304C427832584003B
:10050800372500001305C561EF0010070325840097
:10051800EF1090616FF01FFDB72500009385455ED1
:100528006FF09FFB130101FB232481042322910414
:100538002326110493076000930405001384050023
:1005480063E0A70E3727000093172500130707411C
:10055800B387E70083A707006780070037250000F7
:1005680013058546EF005001EF10406983274404C6
:1005780093050500372500002328F102832704048A
:100588001305C54E2326F1028327C4032324F10251
:10059800832784032322F102832744032320F102C3
:1005A80083270403232EF1008327C402232CF100A0
:1005B80083278402232AF100832744022328F10099
:1005C800832704022326F1008327C4012324F10092
:1005D800832784012322F100832744012320F1008B
:1005E800832804010328C4008327840003274400C8
:1005F8008326040003268404EF0000789305040092
:1006080013850400EFF09FEA37250000130505491C
:100618006FF05FF5372500001305C54A6FF09FF4AA
:1006280037250000938504001305854CEF00C0743E
:100638006FF09FF3130101FF23248100232611008B
:100648001304050073262034B707008093C7F7FF0B
:100658003376F6009307500063E8C7023727000097
:10066800931726001307C742B307F70083A50700AF
:10067800372500001305C544EF00007093050400FA
:1006880013050000EFF01FEAB725000093854544E5
:100698006FF01FFE130101FF23261100F3252034FC
:1006A800B707008093C7F7FF37250000B3F5F500BB
:1006B8001305C571EF00406CB725000093854564AC
:1006C80013054000EFF01FE6B757000003A7872780
:1006D800630C070003A3872723AC0726B75700003E
:1006E80003A5070A6700030067800000130101FFE4
:1006F80023261100EF005035EF001037EF00103EB1
:10070800176100001301819BB712000093820280D9
:1007180033015100EFF09FFD6F00000B130101FD45
:10072800232E3101938906008326010323248102A5
:10073800232021031384050013090600938508006C
:100748001306400023229102232611029304050078
:100758002326E1002324F10023220101EF10503A5F
:1007680083278100930509FBB305B40023A0040681
:1007780023A2040693F505FF23A8F502B727000076
:100788000327C100032841009387078823A6F5049F
:10079800B70700008320C1020324810293870772F0
:1007A80023A4350323A6E50223AA050323A4F504FD
:1007B80023A6B40203290102832441028329C1012B
:1007C8001301010367800000130101FF930705006F
:1007D80013850500930506001386060023261100DD
:1007E800E7800700EF108041EF1010341305000078
:1007F8006780000083A705009387170023A0F500F2
:10080800B757000003A3070167000300130101FCA9
:10081800232C81022326310323244103232061034F
:100828002328A101232E1102232A91022328210320
:1008380023225103232E7101232C8101232A9101A4
:100848002326B10193090500138A0500130D06003C
:10085800138B0600130410006354E0001304070010
:1008680093071000930C00026314FB00930C000321
:10087800B7D49A3B13091000930AA000130C000088
:100888009384F49F930D2000938B140063140C0041
:1008980063F2A40B93850B0013050D00EFF01FA462
:1008A80093050A0013050503E780090013091900D9
:1008B800130C100093850B0013050D00EFF09FA695
:1008C800130D05009305A00013850400EFF01FA188
:1008D800938AFAFF9307100093040500E396FAFA47
:1008E80093050A0013050D03E780090093073000FC
:1008F800330424416306FB068320C10303248103D8
:1009080083244103032901038329C102032A8102A5
:10091800832A4102032B0102832BC101032C81018D
:10092800832C4101032D0101832DC1001301010412
:1009380067800000E34054F9E3EE6DF793050A0081
:1009480013850C00E7800900130919006FF09FF662
:1009580093050A0013050002E78009001304F4FF59
:10096800E34880FE6FF05FF9B757000023A8A7009F
:1009780067800000130101FB2324810423229104D2
:1009880023202105232E3103232C4103232A51033D
:1009980023286103232671032322910323261104AC
:1009A800232481032320A103232EB10193040500EE
:1009B80013890500130B060013840600930A000030
:1009C8009309F0FF130A0000930C0000930B10002A
:1009D800034C0B0063100C048320C104032481041E
:1009E80083244104032901048329C103032A8103C1
:1009F800832A4103032B0103832BC102032C8102A9
:100A0800832C4102032D0102832DC101130101052D
:100A18006780000063900C02130750026306EC30F5
:100A28009305090013050C00E7800400130B1B0055
:100A38006FF01FFA130740066304EC12636287071E
:100A480013079003636A8703130710036378EC0E98
:100A58001307D0026304EC0C930700036304FC0C37
:100A6800930750026312FC02930509001305500214
:100A7800E78004006F00C012130780056302EC18BA
:100A8800930730066308FC289305090013055002F4
:100A9800E78004009305090003450B006FF05FFD34
:100AA80013070007630EEC126360870313079006B1
:100AB8006308EC0A1307C0066300EC0A13078006F4
:100AC800E306ECF66FF05FFC130750076308EC0EC3
:100AD800636E870393073007E318FCFA832C04003E
:100AE800130C440013840C00034504006312052012
:100AF800930730006318FA00330494413384894023
:100B08006340802013040C006F00800913078007DE
:100B18006308EC0E1307A0076FF09FFA130A300062
:100B28006FF0DFF063DE0900630A0A2093090CFD09
:100B3800E31E0AEE130A20006FF05FEFE3C809FE18
:100B4800138509009305A000EFF08FF633058501A2
:100B5800930905FD6FF0DFFD938A1A006FF01FED12
:100B680063C45B05032604001304440063500602B3
:100B7800930509001305D0022324C100E78004006F
:100B8800032681009389F9FF3306C04013870900C3
:100B980093060A009305090013850400EFF01FC7A8
:100BA800930C00006FF09FE813047400937784FFA0
:100BB8001384870003A607006FF05FFB63C85B011F
:100BC80003260400130444006FF05FFC1304740050
:100BD800937784FF1384870003A607006FF01FFB39
:100BE8009305090013050003E78004009305090035
:100BF80013058007E780040093098000130A10009A
:100C080063C45B0583270400130444002324F10014
:100C180013068000130C0000930D0000130D8000D4
:100C280083278100130DFDFF13172D0033D7E7002D
:100C38001377F700631A070263940D0063100D0819
:100C4800130500036F00000313047400137784FF77
:100C580083270700130487002324F1006FF05FFB4C
:100C68000326C1006FF0DFFB9307900013057005A2
:100C7800E3F8E7FC930509003305A7002326C10024
:100C8800130C1C00E7800400938D0C00E31A0DFC84
:100C980013073000930C0000E31AEAD89397190061
:100CA800338C8741E35E80EF93050900130500024A
:100CB800E7800400130CFCFF6FF0DFFE9307F6FFDC
:100CC8002326F100E3C4C9FC631A7A0193050900DD
:100CD80013050003E78004006FF05FFB9307200013
:100CE800E316FAFA93050900130500026FF09FFE58
:100CF8009305090013041400E78004006FF0DFDE99
:100D08009305090013050002E78004001304F4FFAB
:100D18006FF01FDF0325040093050900130C44003E
:100D2800E78004006FF01FDE930A00009309F0FFCC
:100D3800130A0000930C10006FF05FCF130A100025
:100D48006FF0DFCE130101FE130605003705000022
:100D5800938605001305C57F9305C100232E110056
:100D680023260100EFF01FC18320C1010325C10024
:100D78001301010267800000130101FC2322B10264
:100D880093054102232E11002324C1022326D102F8
:100D98002328E102232AF102232C0103232E110325
:100DA8002326B100EFF01FFA8320C10113010104CB
:100DB8006780000067800000130101FF2324810081
:100DC8002322910037540000232611009307A00026
:100DD800930405001304440A631CF500032504006A
:100DE8009305D0008327450083A74700E7800700C5
:100DF8000325040093F5F40F8327450083A74700D4
:100E0800E78007008320C1000324810013850400C4
:100E1800832441001301010167800000130101FFD1
:100E28002324810037140000130504DC2326110055
:100E3800EF00002D130504DC032481008320C1008A
:100E4800130101016FF05FB237250000130101FFA4
:100E58001305457423261100EF004035B7570000ED
:100E680023A2A70AEFF09FFB8320C100130500000F
:100E78001301010167800000B757000003A587022E
:100E8800130101FF23261100EF0010651305700000
:100E9800EFF08FDF37E70000B757000083A7C702DE
:100EA800832607008325470013D6F741B386D7006A
:100EB800B3B7F6003306B6002322D7008320C1005B
:100EC800B387C7002324F70013057000130101013D
:100ED8006FF08FDA130101FF13057000232611004C
:100EE800EFF08FDA37E70000B757000083A7C70293
:100EF800832607008325470013D6F741B386D7001A
:100F0800B3B7F6003306B600B387C7002322D7006D
:100F1800130570002324F700EFF00FD68320C100DB
:100F280013050000130101016780000083470500D5
:100F380003C705006396E700639807001387070057
:100F48003385E74067800000130515009385150079
:100F58006FF0DFFD130101FDB347B50023248102C3
:100F680023229102232E310123261102232021035B
:100F780093F73700930905009384050013040500CF
:100F8800638207043306C400631EC4088320C102B9
:100F980003248102138509008324410203290102E5
:100FA8008329C1011301010367800000E30006FEE5
:100FB8009384140083C7F4FF130414001306F6FF88
:100FC800A30FF4FE93773400E39207FE138704001F
:100FD800930704003305C40093063000B305F540B9
:100FE80063E8B60213592600130509009305C0FFEC
:100FF8002326C100EFF0CFAB0326C1001319290047
:10100800330424013306A600B38424016FF09FF74C
:10101800130747008325C7FF9387470023AEB7FE12
:101028006FF0DFFB9384140083C7F4FF13041400EC
:10103800A30FF4FE6FF05FF5130101FE232A910060
:1010480023282101232E1100232C8100930405005D
:1010580013F9F50F9307050013F737006318070610
:1010680093F5F50F13978500B365B700139705013E
:10107800B365B7003388C7001387070093063000AD
:101088003305E84063EEA604135526001314250023
:101098009305C0FF2326C10033848700EFF04FA1DA
:1010A8000326C1003306C5003306C4006310C40418
:1010B8008320C10103248101138504000329010150
:1010C800832441011301010267800000E30206FE48
:1010D80093871700A38F27FF1306F6FF6FF0DFF73C
:1010E80013074700232EB7FE6FF09FF9130414006F
:1010F800A30F24FF6FF09FFB1305F0FF678000002C
:10110800B757000023AAA7006780000083270500BF
:101118001385050083A7870083A707002380B700EE
:1011280067800000832705001305000083A7870058
:1011380083A7070083C707002380F50067800000A6
:10114800130500006780000013172500B72700006B
:10115800130515009387477613152500130101FF22
:101168003387E700B387A700232481002322910057
:101178000324070083A4070023261100636C94004E
:101188008320C1000324810083244100130101014D
:101198006780000083270400130504001304C400BB
:1011A80083A74700E78007006FF05FFD130101FF89
:1011B800B757000023229100B75400002324810070
:1011C8002326110013840703232021019387070393
:1011D80093844405631C94001309050013840700D5
:1011E80063149402130400006F00400403274400B2
:1011F8006308070003270400032707006308A70202
:101208001304C4006FF01FFD832744006396070092
:101218001304C4006FF0DFFC8327040013050900E2
:1012280083A50700EFF09FD0E31405FE1305040023
:101238008320C10003248100832441000329010085
:10124800130101016780000037550000B7570000FF
:101258001306050A9387072C3386C74093050000B9
:101268001305050A6FF05FDD37550000B75700001A
:10127800130605009387070AB72500003386C74081
:101288009385457B130505006FF0DFCC6780000070
:10129800130101FF1305200023261100EFF0DFEAF8
:1012A8003725000013058577EFF01FAD13053000D3
:1012B800EFF09FE9EF001077EFF05FFDB757000000
:1012C8009387071903C787001377E7FF2384E7008D
:1012D8008320C1001301010167800000130101F59B
:1012E8002322910A9304C1011306400793050000C5
:1012F800138504002326110A2324810A2320210BA5
:10130800232E3109EFF05FD3EFF00F993754000027
:10131800B77700009309C4279387078C130500004B
:1013280023A2F900EFF05FE213051000EFF0DFE110
:101338009307101023A499002312F102EF000077FD
:101348003759000093071000B7160000B765000072
:10135800930409192320F1001307000093070000E4
:10136800930800001308000093868629130600409E
:10137800938505AC1305091923AE9900EF00D058E1
:1013880083C794001304C42713F7B7FFA384E400AA
:1013980093F7B701639C070003A744029307F0FF84
:1013A8006316F70013050919EF00C0383755000018
:1013B80093071000B7260000B76500009304C51115
:1013C8002320F1009308F0001308000093070000A1
:1013D800130700009386863A13060020938505ECD0
:1013E8001305C511EF00505283C7940023269400BB
:1013F80093F7B7FFA384F400B75700009387072932
:10140800232AF400232CF4001304800073340430DE
:10141800EF00006913758400EFE05FE30327050020
:101428008327450023A0E700032705002322F700B0
:1014380067800000832605019307F0FF6388F604A0
:10144800B757000083A74729130101FF232611007E
:1014580023248100630AF500032705008327070179
:10146800B387D7002328F70013040500EFF01FFB0C
:101478009307F0FF2328F4008320C1000324810090
:101488001305000013010101678000001305F0FF38
:1014980067800000130580007335053013758500DB
:1014A80067800000B75700001387C7278326070205
:1014B800375700001307C7299387C7276384E600B7
:1014C8006394060083A6C700631E050203A787006E
:1014D800630A0702034697001376F60163140602AF
:1014E800832547021306F0FF639EC5008355A700B6
:1014F8001306F0076378B600375600000326460245
:101508006316C70023AED7006780000023AEE7004C
:1015180067800000130101FF23248100232291002A
:101528001304050023261100EFF0DFF6834794002B
:101538009304050093F70704638607021305040064
:10154800EFF0DFED8347940093F7F7FBA304F40073
:10155800B757000003A54728330585401335150004
:10156800EFF05FF493F48400F3A404308320C10007
:1015780003248100832441001301010167800000D6
:10158800130101FF23248100232611001304050001
:10159800EFF05FF093070500032504006314A4002F
:1015A8001305000093F78700F3A707308320C100D5
:1015B800032481001301010167800000130101FF6A
:1015C800232611002324810023229100930405007F
:1015D800EFF05FEC1304050013850400EFF01FE43F
:1015E80083C794001374840093F7D7FFA384F4008F
:1015F800732404308320C100032481008324410024
:101608001301010167800000130101FF9305000029
:101618002324810023261100EFF09FF61304050010
:1016280063080500EFF09FF913054401EFF09FE010
:10163800130504008320C100032481001301010164
:1016480067800000B757000083A6C7271307050067
:10165800639006029387C72783A6870083A7C701DD
:101668006388F600B757000023A4072A6FE01FBE5F
:101678001377870073270730130500006780000081
:10168800130101FF2326110023248100EFF09FE0BE
:10169800B757000003A747281304050013051000D7
:1016A8008347B7001374840093871700A305F700D6
:1016B800EFF05FDF732404301305800073350530C5
:1016C800032481008320C1001375850013010101E3
:1016D8006FF05FF7832705006300F504638E070248
:1016E8000387A5008386A7006350D70203A7470096
:1016F80023A0F50023A2E50003A747002320B70095
:1017080023A2B70067800000832645006386D700C0
:1017180083A70700E39807FC8327450023A0A500BB
:1017280023A2F5008327450023A0B7002322B50094
:1017380067800000130101FF232611002324810084
:101748002322910093040500EFF0DFD41304050071
:1017580037550000938504001305C529EFF09FF75E
:1017680083C79400130500001374840093E70704EB
:10177800A384F400EFF01FD3732404308320C10046
:1017880003248100832441001301010167800000C4
:101798008347950093F7F701639A070003274502EB
:1017A8009307F0FF6314F7006FF0DFF8678000001D
:1017B80023A8D50023A4A50023A6C500639806087E
:1017C800130101FF23248100232291002326110005
:1017D8009304050013048000733404309307F0FF6A
:1017E80023A8F500137484006300050483A7C500CB
:1017F80063860700EFF09FDC23A0040283C79400F0
:101808001385040093F7B7FFA384F400EFF05FF8A3
:10181800732404308320C100032481008324410001
:1018280013010101678000007324043003A34501FC
:10183800E30203FE032481008320C10083244100C6
:1018480013850500130101016700030037570000E5
:101858009306C72783A746013755000013050529B6
:1018680003A886011307C7276386A70463840704B0
:1018780083A6050103A607016344D60203A7470010
:10188800B306D64023A8D70023A2E50003A7470044
:1018980023A0F5002320B70023A2B700678000002B
:1018A800B386C64023A8D5006386070183A707002F
:1018B8006FF0DFFB23A205018327870123A0A50082
:1018C80023A0B700232CB70067800000130101FF95
:1018D800232611002324810023229100930405006C
:1018E800EFF05FBB1304050013850400EFF01FB38E
:1018F80037550000938504001305C529EFF09FDDD7
:1019080083C79400130500001374840093E7070449
:10191800A384F400EFF01FB9732404308320C100BE
:101928000324810083244100130101016780000022
:10193800130101FE232A91002328210193040500A5
:101948002326C100232E1100232C810013890500B2
:10195800EFF05FBC83C794000326C10093E727001C
:10196800A384F4009307F0FF630AF60213048000CF
:10197800733404309305A00013059600EFE09F959B
:101988009306150013060900938544011385040086
:10199800EFF01FE213748400732404306302090219
:1019A800032481018320C1019385040013050900E4
:1019B8008324410103290101130101026FF09FD122
:1019C8008320C101032481018324410103290101EA
:1019D8001301010267800000130101FFB7570000DF
:1019E800232481001304050003A54728232611009A
:1019F800EFF01FF413050400032481008320C100C5
:101A0800B757000023A4072A130101016FE01F84C0
:101A1800B757000083A7872B130101FF23248100F8
:101A2800232611002322910013040000635EF004B2
:101A38000357A5009307F0071304000063E6E704C3
:101A4800B75700000307A50083A7C72B634EF7020B
:101A580093040500EFF01FA4B757000083A7C72918
:101A6800375700001307C729638CE700638A07000C
:101A78000384A4008387A7003304F44013341400BC
:101A88001375850073250530130504008320C100F4
:101A980003248100832441001301010167800000B1
:101AA800B757000023A4072A67800000B757000033
:101AB800375700009387C7271307C72923A0E702D2
:101AC80023A2E702B757000023AC072AB757000044
:101AD80023A4072AB757000023AE072A678000000F
:101AE800130101FF23248100375400009307C42702
:101AF80003A78700B757000083A7470223261100D2
:101B0800232291001304C427630AF702EFF09F9879
:101B1800930405000325840093F48400EFF01F90DC
:101B280083258400375500001305C529EFF09FBAB7
:101B380013051000EFF01F97F3A404300327840067
:101B48008327C4016306F702130580007335053047
:101B5800032481008320C10083244100B75700007B
:101B680023A4072A13758500130101016FE00FEE06
:101B78008320C10003248100832441001301010153
:101B880067800000631405006FF09FF5130101FEE4
:101B98009305A00013059500232A9100232E110018
:101BA800232C8100EFE00FF3130515002326A10075
:101BB80093048000F3B40430375400001304C4279E
:101BC80003258400EFF01F95032584008326C100B8
:101BD8001306000093054501EFF09FBD0324810122
:101BE8008320C101B757000013F584008324410105
:101BF80023A4072A130101026FE04FE5B75700003D
:101C080003A5472867800000130101FF23248100F2
:101C18002320210123261100232291001309050006
:101C2800130480007334043013748400EFF0DF9DD4
:101C380063020504834795009304050093F7F701B1
:101C4800639A0700032745029307F0FF6314F70020
:101C5800EFF05FAE23A804061305040003248100F7
:101C68008320C100832441000329010013010101DD
:101C78006FF05F9D032789008327C900B387E7407A
:101C8800B337F000B387E7002324F9006FF0DFFCD7
:101C98001386050093078000F3B7073003278500F4
:101CA80093F78700630C07001307F7FF2324E50069
:101CB800F3A707301305000067800000639805004C
:101CC800F3A70730130500FF6780000093050500A0
:101CD800138507006FF05FD0130101FD23229102E5
:101CE800232611022324810223202103232E3101DC
:101CF800232C4101232A5101232861019304050063
:101D080013078000F3370730375500000326052BEB
:101D18008326452B93D5F4413388C400B338980003
:101D2800B385D500B386B8002328052B232AD52AE6
:101D380093F78700F3A70730130681002324C10017
:101D48002326C10073370730B75900009387C92786
:101D580083A74701B75600009386062913778700A3
:101D68009389C9276382D70893860400638E070680
:101D78009308E0FF1308800083A5070163DED50CF4
:101D880023A8070003A58901B386B6409305000080
:101D98006304F50083A5070003A507016314050C78
:101DA80003A3070003A547002320650003A307003A
:101DB8002322A3000325810023A2C70023A0A70094
:101DC800032581002324F1002322F50023A817010D
:101DD8007327073073370830137787009387050018
:101DE800E39C05F86F0040087327073003A58900B6
:101DF800EFF01FC2630E0502B757000003A7872A3A
:101E0800B384E400375700000327872B23A4972ABD
:101E180063C0E40223A4072A130480007334043047
:101E280003A5890013748400EFF05FAA73240430BB
:101E38008320C10203248102832441020329010271
:101E48008329C101032A8101832A4101032B01014E
:101E580013010103678000003385D54023A8A7003C
:101E68006FF05FF2E346D0F6732707300324810052
:101E7800E30EC4F6E30C04F6130B8000930AF0FF9C
:101E880003298400733A0B3023285401137A8A00FB
:101E9800630A09048327C40063880700130509003F
:101EA800EFF0CFF1232009028347990013F7B7FF1A
:101EB800A304E90093F7B701639A0700832749024F
:101EC8006396570113050900EFF0DF86732A0A307D
:101ED8008327C100E30CF4F003240400E31204FA9E
:101EE8006FF0DFF0732A0A3083274401E38207FE8C
:101EF80013050400E78007006FF09FFD83260501A6
:101F08009307F0FF6380F60437570000032747293B
:101F1800832705006308E50003A707013307D700F7
:101F280023A8E700032745002320F700832705009F
:101F380023A2E7009307F0FF2328F500130500000C
:101F4800678000001305F0FF678000008347950055
:101F580093F7F701639A0700032745029307F0FFF9
:101F68006314F7006FF00FFD67800000130101FF95
:101F78002324810013040500138595009305A00010
:101F8800232611002322910023202101EFE08FB4A2
:101F9800130515009307800073B907302322A402A4
:101FA800232E84002320040213798900631E05046C
:101FB800F3B407309307F0FF2322F40283270402C7
:101FC8006388070013050400EFF04FDF23200402A5
:101FD800834794001305040093F7B7FFA304F400A4
:101FE800EFF0DFF693F78400F3A707307329093081
:101FF8008320C100032481008324410003290100B8
:102008001301010167800000375700009306C727B6
:1020180083A7460137550000130505299305440198
:1020280003A886011307C7276386A70463840704E8
:102038008326440203A607016344D60203A7470088
:10204800B306D64023A8D700232CE40003A74700F3
:10205800232AF4002320B70023A2B7006FF01FF94A
:10206800B386C6402322D4026306F80083A707007C
:102078006FF0DFFB232C040183278701232AA400A8
:1020880023A0B700232CB7006FF05FF6B757000006
:1020980003A5C7273335A00067800000B7570000A5
:1020A80083A7472803C587001375150067800000BC
:1020B800130101FF2324810023261100130480004B
:1020C80073340430034795001374840093764700F3
:1020D800639C0600732404308320C100032481001C
:1020E80013010101678000001377B7FFA304E5001F
:1020F800EFF0DFE513050400032481008320C1000D
:10210800130101016FF00FD4130101FE0323010233
:10211800232C8100232E11002320610013040500C5
:10212800EFE0CFDFB757000083A747288320C1011E
:1021380083A7C7062326F40603248101130101029D
:1021480067800000130101FE03230102232A910086
:102158008324410223206100232C8100232E1100B7
:1021680013040500EFF05FFA9307F0FF6388F400AB
:102178006392040213050400EFF09FF313050400B3
:102188008320C10103248101832441011301010239
:10219800678000009385040013050400EFF01FDD3D
:1021A8006FF0DFFD83274506130101FF232481001B
:1021B800232611001304050063840700E780070045
:1021C8008347940013F7F701631A07028326440232
:1021D8001307F0FF6394E60213050400EFF08FB3D2
:1021E8008347940093E78700A304F4008320C10089
:1021F80003248100130101016780000093F7270081
:102208006386070013050400EFF04FBB0327440261
:102218009307F0FFE306F7FC13054401EFF01FCE28
:102228006FF01FFC130101FDB7570000232E310189
:10223800B759000023248102232291022326110288
:1022480023202103138447059384470593890908AC
:1022580063683405B757000003A747288347B700CA
:102268009387F7FFA305F700130980007339093036
:1022780013840400137989009304F0FF6360340722
:1022880073290930032481028320C1028324410277
:10229800032901028329C101130101036FF04FBE15
:1022A800832704022320F100832744018328C401E3
:1022B80003288401032704018326C400032684001D
:1022C8008325440003250400EFF01FE4832704005E
:1022D80023A087061304C4026FF09FF783254402E6
:1022E800638895000325040063980500EFF05FDC20
:1022F8001304C4026FF09FF8EFF05FC76FF05FFF41
:102308009307F0FF2304D500A304C5002305B500F7
:10231800A30505002322F50223200502232E05002C
:102328002324050267800000130101FF2324810094
:102338002322910023261100930405001304800032
:1023480073340430EFF01FE6B757000003A7C72720
:1023580013748400630E0700732404308320C100C3
:1023680003248100832441001301010167800000D8
:102378009387C72783A7870063989700EFF04FF2EA
:1023880013050400EFD09FEC13050400032481001B
:102398008320C10083244100130101016FF08FAA3B
:1023A800130101FF23248100232611001304800058
:1023B800F3370430EFE04F8B6FF09FFF678000002A
:1023C80064240000500E0000000000004C270000AC
:1023D800DC0E000000000000442700004811000047
:0423E8001850000089
:1023EC00726973637633320025733A2048656C6CDE
:1023FC006F20576F726C642066726F6D202573218D
:10240C000A000000700500002806000028060000E5
:10241C006405000070050000100600001C0600009A
:10242C0094260000B4260000D0260000E42600000C
:10243C00F026000008270000756E6B6E6F776E003B
:10244C00457863657074696F6E2063617573652080
:10245C00257320282564290A000000002A2A2A2A2C
:10246C00204B65726E656C20416C6C6F6361746996
:10247C006F6E204661696C75726521202A2A2A2AA2
:10248C000A0000002A2A2A2A2A204B65726E656CE3
:10249C00204F4F505321202A2A2A2A2A0A000000B2
:1024AC002A2A2A2A2A204B65726E656C2050616E8E
:1024BC00696321202A2A2A2A2A0A00002A2A2A2A7F
:1024CC0020556E6B6E6F776E20466174616C204583
:1024DC0072726F7220256421202A2A2A2A0A00008F
:1024EC0043757272656E74207468726561642049FC
:1024FC0044203D2025700A4661756C74696E672016
:10250C00696E737472756374696F6E206164647242
:10251C00657373203D20307825780A202072613A4B
:10252C002030782578202067703A20307825782064
:10253C002074703A2030782578202074303A20307E
:10254C007825780A202074313A203078257820209C
:10255C0074323A2030782578202074333A20307841
:10256C002578202074343A20307825780A2020747D
:10257C00353A2030782578202074363A203078256A
:10258C0078202061303A2030782578202061313A4B
:10259C0020307825780A202061323A20307825784E
:1025AC00202061333A2030782578202061343A207D
:1025BC0030782578202061353A20307825780A202B
:1025CC002061363A2030782578202061373A203047
:1025DC007825780A00000000495352006573736532
:1025EC006E7469616C20746872656164000000002F
:1025FC00466174616C206661756C7420696E20256F
:10260C007321205370696E6E696E672E2E2E0A0030
:10261C00466174616C206661756C7420696E2074FF
:10262C006872656164202570212041626F72746943
:10263C006E672E0A00000000ADBAADDEADBAADDE9D
:10264C00ADBAADDEADBAADDEADBAADDEADBAADDEB6
:10265C00ADBAADDEADBAADDEADBAADDEADBAADDEA6
:10266C00ADBAADDEADBAADDEADBAADDEADBAADDE96
:10267C00ADBAADDEADBAADDEADBAADDEADBAADDE86
:10268C00ADBAADDEADBAADDE496E737472756374FE
:10269C00696F6E2061646472657373206D69736118
:1026AC006C69676E65640000496E7374727563744F
:1026BC00696F6E20416363657373206661756C741A
:1026CC0000000000496C6C6567616C20696E737466
:1026DC0072756374696F6E00427265616B706F69BD
:1026EC006E7400004C6F6164206164647265737376
:1026FC00206D6973616C69676E6564004C6F616411
:10270C0020616363657373206661756C74000000EF
:10271C0053707572696F757320696E74657272751A
:10272C00707420646574656374656421204952512A
:10273C003A2025640A0000007561727430000000B4
:10274C007379735F636C6F636B0000002C11000076
:10275C001411000000000000305000004850000030
:10276C005450000054500000545000002A2A2A2AC9
:10277C002A20426F6F74696E67205A65706879728F
:10278C00204F53207A65706879722D76312E313353
:10279C002E302D332D6738366565643131366164E2
:0827AC00202A2A2A2A2A0A0029
:1027B40074687265616442007468726561644100A2
:1027C400F40700000011000000C000000000000039
:1027D400F5FFFFFF1C5100000100000020A10700CD
:1027E400E02300005827000000000000C823000078
:1027F4000000000000000000D423000000000000DE
:0428040000000000D0
:1028080004520000C0560000000400001404000038
:1028180000000000000000000000000007000000A9
:0C282800000000000000000000000000A4
:1028340080500000805000000100000001000000F2
:1028440090500000905000000000000001000000C3
:00000001FF
